:100000001CC1000037C1000035C1000033C1000031
:1000100031C100002FC100002DC100002BC1000024
:1000200029C1000027C1000007C70000D2C7000097
:1000300021C100001FC100001DC100001BC1000044
:1000400019C1000017C1000015C1000013C1000054
:1000500011C100000FC100000DC100000BC1000064
:1000600009C1000007C1000005C1000003C1000074
:1000700001C10000FFC00000FDC00000FBC0000087
:10008000F9C00000F7C00000F5C00000F3C0000098
:10009000F1C00000EFC00000EDC00000EBC00000A8
:1000A000E9C00000E7C00000E5C000001C034C00F0
:1000B000550046004100200043004400430020005A
:1000C000440065006D006F000000180344006500E7
:1000D00061006E002000430061006D006500720049
:1000E000610000000403090409023E00020100C08F
:1000F000320904000001020201000524001001047D
:100100002402060524060001070582030800FF09F2
:10011000040100020A0000000705040210000507A0
:100120000583021000051201100102000008EB0314
:10013000442001000102DC016E616E00696E660000
:1001400000407A10F35A00A0724E18090010A5D48E
:10015000E80000E87648170000E40B54020000CAEB
:100160009A3B000000E1F505000080969800000031
:1001700040420F000000A086010000001027000090
:100180000000E803000000006400000000000A0016
:10019000000000000100000000002C76D888DC6719
:1001A0004F0823DFC1DFAE59E1B1B796E5E3E45371
:1001B000C63AE651997696E8E6C28426EB898C9B8E
:1001C00062ED407C6FFCEFBC9C9F40F2BAA56FA52E
:1001D000F490055A2AF75C936B6CF9676DC11BFCB0
:1001E000E0E40D47FEF520E6B500D0ED902E0300CB
:1001F000943577050080841E080000204E0A000018
:1002000000C80C333333330F986E12831141EF8DD6
:100210002114893BE65516CFFEE6DB18D1844B3816
:100220001BF77C1D901DA4BBE424203284725E2247
:100230008100C9F124ECA1E53D2711241FBECFEFB9
:10024000DAE0DEBFCDBF11E0A0E0B1E0EEE5FEE216
:1002500002C005900D92AE3EB107D9F722E0AEEE96
:10026000B1E001C01D92A833B207E1F70E94FC0E75
:100270000C942D17C5CE81E480937C0087E8809391
:100280007A00EBE7F0E08081806280830895292F77
:1002900033272230310559F02330310569F0213000
:1002A0003105F9F482E190E026E231E01EC08EE3F0
:1002B00090E028EE30E019C099278130910541F097
:1002C0008230910541F0892B61F4E4EEF0E005C045
:1002D000EAECF0E002C0ECEAF0E0849190E09F01EB
:1002E00004C080E090E020E030E0FA013183208318
:1002F0000895982F907F84FF02C08C9A01C08C983B
:1003000085FF02C08D9A01C08D9886FF02C08E9A2B
:1003100001C08E9897FF02C08F9A01C08F98899A6A
:100320009AE09A95F1F700C089988295982F907F6E
:1003300084FF02C08C9A01C08C9885FF02C08D9A00
:1003400001C08D9886FF02C08E9A01C08E9897FFDB
:1003500002C08F9A01C08F98899A8AE08A95F1F736
:1003600000C08998089595ED9A95F1F70000889856
:10037000982F907F84FF02C08C9A01C08C9885FFD3
:1003800002C08D9A01C08D9886FF02C08E9A01C06E
:100390008E9897FF02C08F9A01C08F98899A8AE041
:1003A0008A95F1F700C08998089595ED9A95F1F72F
:1003B000000088989ECF95ED9A95F1F70000889AF5
:1003C00098CF849A859A869A879A809A819A2FEFF5
:1003D00083EF91E0215080409040E1F700C00000A1
:1003E00080E3C1DF8FE39CE90197F1F700C00000D3
:1003F00080E3B9DF8FE39FE10197F1F700C00000D0
:1004000080E3B1DF88E2AFDF88E2CFDF8CE0CDDFD1
:1004100081E0CBDF8FE39FE10197F1F700C000009F
:1004200086E0C3CFFF920F931F93CF93DF93F82EF5
:10043000EC018E018881882359F08C2F8F19883028
:1004400011F480ECB2DF2196F8018081B4DFF1CFA6
:10045000DF91CF911F910F91FF9008956817790751
:1004600028F04817590710F0CB0106C086179707E8
:1004700040F04617570728F04817590730F4CA01CB
:1004800008956817790708F4CB010895CF92DF9299
:10049000EF92FF920F931F93CF93DF93CDB7DEB709
:1004A0002C970FB6F894DEBF0FBECDBF8E010F5F45
:1004B0001F4F7E0187E0E80EF11C6E01EDE0CE0ECD
:1004C000D11CF70180917A00806480937A0080913A
:1004D0007A0086FDFCCF809178002091790090E031
:1004E000922B81939193EC15FD0561F74B855C850B
:1004F00069857A858F819885B1DFF8018193919321
:100500008F01EE15FF05E9F64D815E816B817C81DF
:1005100089819A812C960FB6F894DEBF0FBECDBFAD
:10052000DF91CF911F910F91FF90EF90DF90CF90CF
:1005300095CFCF93DF93C0E0D0E0A8DFFE01EE0FB0
:10054000FF1FEE50FE4F918380832196C031D1056D
:10055000A1F7DF91CF9108958F929F92AF92BF92B2
:10056000CF92DF92EF92FF9220E030E0A9014F5F3F
:100570005F4FFA01EE0FFF1FEE50FE4F6081718159
:10058000220F331FF901EE50FE4F718360839A01F1
:100590004F30510559F79093110280931002109239
:1005A000EE011092EF011092F0011092F101C12CB6
:1005B000D12C7601C394F6013297EE0FFF1FEE5057
:1005C000FE4FA081B1818090EE019090EF01A0904C
:1005D000F001B090F101A70196010E94F814860E77
:1005E000971EA81EB91E8092EE019092EF01A09274
:1005F000F001B092F1018FEFC81AD80AE80AF80AA0
:1006000081E1C816D104E104F104A9F66091EE017C
:100610007091EF018091F0019091F10128E830E0B4
:1006200040E050E00E94D614C901FF90EF90DF90A7
:10063000CF90BF90AF909F908F900895CF93DF930E
:10064000EC01FC0170968BE0DF011D928A95E9F7C1
:1006500082E08C83898783E08E8761E0CE010196FA
:10066000F5D2882361F061E0CE010696EFD28823AF
:1006700031F061E0CE010B96DF91CF91E7C280E0CF
:10068000DF91CF910895DB0120912F022430C9F42E
:10069000FC014489558966897789452B462B472B70
:1006A00081F081818F708093E900FD01019000202D
:1006B000E9F73197BF016A1B7B0B40E050E0CD01A9
:1006C00083C182E008950F931F93CF9320912F024F
:1006D0002430F9F4FC010489158926893789012B16
:1006E000022B032BB1F0C62F81818F708093E9001C
:1006F0008091E80085FF04C0C093F10080E00AC04B
:100700008091E8008E778093E80007D38823A1F3D7
:1007100001C082E0CF911F910F910895FB01682FD6
:1007200084859585D0DF21E030E0811102C020E092
:1007300030E088279927821B930B089520912F0280
:10074000243041F5FC014489558966897789452B18
:10075000462B472BF9F081818F708093E90020911F
:10076000F3008091F20090E0922B892B89F0909118
:10077000E8008091E8008E778093E80095FD08C03E
:10078000CCD2811108C08091E8008E778093E80078
:1007900080E0089582E0089520912F02243089F4AA
:1007A000FC014489558966897789452B462B472B5F
:1007B00041F021812F702093E9002091E80020FD75
:1007C000BDCF089520912F02243019F08FEF9FEFB5
:1007D0000895FC014489558966897789452B462B04
:1007E000472BA1F386818F708093E9008091E80008
:1007F00082FFECCF2091F3008091F20090E0922BE9
:10080000892B21F02091F10030E002C02FEF3FEF63
:100810004091F3008091F20090E0942B892B29F411
:100820008091E8008B778093E800C9010895FC016E
:1008300084859585C7DF97FF02C08EEF9FEF0895EF
:10084000FB012EE0DB011D922A95E9F723E02383CB
:100850002EE833E03187208727E134E03387228791
:100860009587848708950895CF93DF93EC01809155
:10087000E80083FFA6C0888190E020913402309187
:1008800035022817390709F09CC080913102813266
:1008900061F020F4803209F43EC093C0823209F442
:1008A0006CC0833209F47DC08CC080913002813AE3
:1008B00009F087C08091E800877F8093E8008091ED
:1008C000E80080FFFCCF8C899D89AE89BF89809329
:1008D000F100492F5A2F6B2F77274093F100AD017C
:1008E000662777274093F1008B2F9927AA27BB27EC
:1008F0008093F100888D8093F100898D8093F100C1
:100900008A8D8093F1008091E8008E778093E800D3
:10091000DF91CF91E3C180913002813209F051C063
:100920008091E800877F8093E8008091E80082FD55
:1009300005C080912F028111F8CF43C03091F100A2
:100940002091F1009091F1008091F1003C8B2D8B72
:100950009E8B8F8B8091F100888F8091F100898F21
:100960008091F1008A8F8091E8008B778093E80076
:10097000B5D1CE01DF91CF9176CF80913002813217
:1009800001F58091E800877F8093E800A7D18091EE
:10099000320290913302998B888BCE01DF91CF91F7
:1009A00062CF80913002813261F48091E800877FCC
:1009B0008093E80093D160913202CE01DF91CF9114
:1009C00052CFDF91CF910895CF92DF92EF92FF92B5
:1009D0000F931F93CF93DF93EC018B016A019DD19D
:1009E000811132C0C114D10439F0F60180819181A6
:1009F000081B190BC80FD91FE12CF12C011511058B
:100A000011F18091E80085FD15C08091E8008E7796
:100A10008093E800C114D10449F0F60180819181EE
:100A2000E80EF91EF182E08285E00EC076D18823BF
:100A300029F30AC089918093F10001501109FFEF59
:100A4000EF1AFF0ADBCF80E0DF91CF911F910F916A
:100A5000FF90EF90DF90CF90089520913602309173
:100A600037022617370748F06115710539F42091D0
:100A7000E8002E772093E80001C0B90140E061153D
:100A80007105A9F120912F02222309F443C02530DA
:100A900009F442C02091E80023FD40C02091E80005
:100AA00022FD32C02091E80020FFE9CF4091F30001
:100AB0002091F20030E0342BFC01CF01611571056B
:100AC00059F02830310540F481918093F100615054
:100AD00071092F5F3F4FF1CF41E02830310509F018
:100AE00040E02091E8002E772093E800C8CF411124
:100AF000C9CF0AC080912F02882361F0853061F050
:100B00008091E80083FD0AC08091E80082FFF2CF67
:100B100080E0089582E0089583E0089581E00895DB
:100B200020913602309137022617370748F06115B9
:100B3000710539F42091E8002E772093E80001C078
:100B4000B901FC0120E06115710591F180912F023E
:100B5000882309F440C0853009F43FC08091E80043
:100B600083FD3DC08091E80082FD2FC08091E800A8
:100B700080FFE9CF2091F3008091F20090E0922B6A
:100B80006115710559F08830910540F42491209346
:100B9000F1003196615071090196F2CF21E008977A
:100BA00009F020E08091E8008E778093E800CBCFB9
:100BB0002111CCCF0AC080912F02882361F08530AB
:100BC00061F08091E80083FD0AC08091E80082FF17
:100BD000F2CF80E0089582E0089583E0089581E0F7
:100BE0000895982F973058F59093E900981739F0A9
:100BF0007091EC002091ED005091F00003C0242F83
:100C0000762F50E021FF19C03091EB003E7F3093EA
:100C1000EB003091ED003D7F3093ED003091EB0023
:100C200031603093EB007093EC002093ED00509313
:100C3000F0002091EE0027FF07C09F5FD3CF8F7099
:100C40008093E90081E0089580E00895EF92FF929B
:100C50000F931F93CF93DF93E62EEC018C010C5F73
:100C60001F4FF12CFE1491F15881552351F1F801D9
:100C7000208169817A8131979081852F8F708730AB
:100C800010F080E024C0223010F442E001C046E0C1
:100C9000E8E0F0E020E0E617F70720F42F5FEE0F22
:100CA000FF1FF9CF2295207F422BF0E49F9F9001F8
:100CB0001124551F5527551F652F622B92DF88235E
:100CC00001F3F39425960B5F1F4FCCCF81E0DF91AA
:100CD000CF911F910F91FF90EF9008958091300276
:100CE00087FF11C08091E80082FD05C080912F022E
:100CF0008111F8CF11C08091E8008B770BC08091F3
:100D00002F02882349F08091E80080FFF8CF80917E
:100D1000E8008E778093E80008952091E4003091F8
:100D2000E50095E64091EC00842F817040FF22C0E1
:100D30008091E80080FD1CC080912F02882391F0F3
:100D4000853091F08091EB0085FD10C04091E4006A
:100D50005091E5004217530729F39A01915011F77A
:100D600084E0089582E0089583E0089581E0089585
:100D700080E008954091E80042FFDECF08950F9390
:100D80001F93CF93DF934BD052D0C8EDD0E0888132
:100D90008F77888388818068888388818F7D888326
:100DA00019BC10922F0210922B0210922D02109259
:100DB0002C0200EE10E0F80180818B7F8083888117
:100DC0008160888342E060E080E00BDFE1EEF0E0EC
:100DD00080818E7F8083E2EEF0E08081816080837D
:100DE000808188608083F80180818E7F8083888104
:100DF00080618883DF91CF911F910F910895E8ED75
:100E0000F0E080818F7E8083E7EDF0E0808181607B
:100E1000808384E082BF81E080932E02B0CFE8ED32
:100E2000F0E080818E7F80831092E200089510921E
:100E3000DA001092E10008951F920F920FB60F9200
:100E400011242F933F934F935F936F937F938F93CF
:100E50009F93AF93BF93EF93FF938091E10082FF45
:100E60000AC08091E20082FF06C08091E1008B7F82
:100E70008093E10043D28091DA0080FF1FC080910F
:100E8000D80080FF1BC08091DA008E7F8093DA004B
:100E90008091D90080FF0DC080E189BD82E189BDCC
:100EA00009B400FEFDCF81E080932F020E94DB0F8A
:100EB00005C019BC10922F020E94FB0F8091E10027
:100EC00080FF18C08091E20080FF14C08091E20092
:100ED0008E7F8093E2008091E20080618093E20047
:100EE0008091D80080628093D80019BC85E08093FF
:100EF0002F0204D28091E10084FF2FC08091E20094
:100F000084FF2BC080E189BD82E189BD09B400FE68
:100F1000FDCF8091D8008F7D8093D8008091E10033
:100F20008F7E8093E1008091E2008F7E8093E200CB
:100F30008091E20081608093E20080912B028823FF
:100F400011F084E007C08091E30087FD02C081E0DA
:100F500001C083E080932F02D1D18091E10083FF13
:100F600027C08091E20083FF23C08091E100877F4A
:100F70008093E10082E080932F0210922B028091F7
:100F8000E1008E7F8093E1008091E2008E7F80936C
:100F9000E2008091E20080618093E20042E060E044
:100FA00080E01FDE8091F00088608093F000A6D181
:100FB000FF91EF91BF91AF919F918F917F916F9131
:100FC0005F914F913F912F910F900FBE0F901F9007
:100FD00018951F920F920FB60F9211242F933F93E3
:100FE0004F935F936F937F938F939F93AF93BF9331
:100FF000CF93DF93EF93FF93C091E900CF7080917F
:10100000EC00D82FD17080FDD0E81092E9008091DB
:10101000F000877F8093F00078941ED01092E90052
:101020008091F00088608093F000CD2BCF70C0934A
:10103000E900FF91EF91DF91CF91BF91AF919F9127
:101040008F917F916F915F914F913F912F910F9071
:101050000FBE0F901F9018951F93CF93DF93CDB7BE
:10106000DEB7AA970FB6F894DEBF0FBECDBFE0E3A0
:10107000F2E088E08E0F9091F10091938E13FBCFF8
:10108000DED78091E80083FF21C1809130029091EA
:101090003102953009F478C030F4913081F168F074
:1010A000933069F113C1983009F4E2C0993009F422
:1010B000F1C0963009F00AC189C0803881F08238C9
:1010C00009F004C1809134028F708093E90080910F
:1010D000EB0085FB882780F91092E90006C080911B
:1010E0002C0290912D02911182609091E800977FDF
:1010F0009093E8008093F1001092F100C4C0282F73
:101100002D7F09F0E3C0882319F0823061F0DEC042
:1011100080913202813009F0D9C0933009F080E02B
:1011200080932D022BC080913202811127C08091C3
:1011300034028F7009F4CAC08093E9002091EB005B
:1011400020FF1CC0933021F48091EB00806214C01A
:101150009091EB0090619093EB0021E030E0A901C9
:1011600002C0440F551F8A95E2F74093EA0010929F
:10117000EA008091EB0088608093EB001092E90018
:101180008091E800877F82C08111A0C01091320257
:101190001F778091E3008078812B8093E30080911A
:1011A000E800877F8093E80099DD8091E80080FF68
:1011B000FCCF8091E30080688093E300111102C0AE
:1011C00082E001C083E080932F0280C0805882308B
:1011D00008F07CC080913202909133028C3D53E044
:1011E000950771F583E08A838AE289834FB7F89483
:1011F000DE01139620E03EE051E2E32FF0E0509351
:101200005700E49120FF03C0E295EF703F5FEF705D
:101210008E2F90E0EA3010F0C79601C0C0968D93F3
:101220009D932F5F243149F74FBF8091E800877F5E
:101230008093E8006AE270E0CE0101960EDC12C0F5
:10124000AE014F5F5F4F6091340221D8BC01892B02
:1012500009F43CC09091E800977F9093E800898161
:101260009A815EDC8091E8008B778093E8002EC045
:10127000803861F58091E800877F8093E800809155
:101280002B028093F1008091E8008E778093E80034
:1012900025DD1CC081111AC0909132029230B0F449
:1012A0008091E800877F8093E80090932B0216DD01
:1012B00080912B02811106C08091E30087FD02C05E
:1012C00081E001C084E080932F02B5D68091E800D0
:1012D00083FF0AC08091E800877F8093E8008091B7
:1012E000EB0080628093EB00AA960FB6F894DEBF05
:1012F0000FBECDBFDF91CF911F9108950895CF9379
:1013000080912F02882399F0C091E900CF709091CD
:10131000EC00892F817090FD80E8C82B1092E900C5
:101320008091E80083FD98DECF70C093E900CF91F3
:1013300008952F923F924F925F926F927F928F9279
:101340009F92AF92BF92CF92DF92EF92FF920F9354
:101350001F93CF93DF93CDB7DEB7A6970FB6F89460
:10136000DEBF0FBECDBF82E090E00E94F4169093E6
:101370001A028093190284E090E00E94F416909380
:1013800018028093170280E090E00E94F416909378
:10139000160280931502512C412C312C29E2622E29
:1013A00021E0722E8E010F5F1F4F39E3C32E31E013
:1013B000D32E49E2E42EF12C5DE5A52E51E0B52EA9
:1013C000952C98E0892E9110A1C1809117029091DF
:1013D0001802892B29F4F0920501E09204013EC025
:1013E0008091170290911802909305018093040157
:1013F00035C0609104017091050180E090E088D6CD
:1014000027E23EE945EF5BE311D728E032E34DE9FF
:101410005EE319D69F938F937F936F937F926F9222
:101420001F930F930E946E1680E80E94D501C80199
:101430000E9412020FB6F894DEBF0FBECDBF379BDD
:1014400010C0369B3FC01E9B52C09FEF27EE83E02B
:10145000915020408040E1F700C00000442049F254
:1014600092C09FEF2AE683E0915020408040E1F750
:1014700000C000003799E5CF60910401709105012B
:1014800084E090E00E940B1784E090E00E94F41644
:1014900090931802809317028091190290911A027A
:1014A000892B29F4F0920501E092040108C0809193
:1014B000190290911A02909305018093040144242B
:1014C0004394BFCF9FEF2AE683E0915020408040B5
:1014D000E1F700C000003699B6CF809104019091E9
:1014E000050101969093050180930401ACCF9FEF15
:1014F0002AE683E0915020408040E1F700C00000E0
:101500001E99A3CF80910401909105018A9750F014
:1015100080910401909105010197909305018093BA
:10152000040193CFF0920501E09204018ECF609107
:1015300004017091050180E090E0EAD527E23EE9E0
:1015400045EF5BE373D628E032E34DE95EE37BD5FC
:101550009F938F937F936F93DF92CF921F930F93FD
:101560000E946E1680E80E94D501C8010E941202F6
:101570000FB6F894DEBF0FBECDBF379B07C0369BBA
:101580008BC01E9B9EC0332091F2BBC09FEF2AE60A
:1015900083E0915020408040E1F700C0000037997F
:1015A000EECF809104019091050190931A028093EF
:1015B000190220911702309118028091190290911E
:1015C0001A0282179307C8F581E00E94D5018FE3C4
:1015D0009FE10197F1F700C00000E1E2F1E0DE01D8
:1015E0005F96882D01900D928A95E1F7CE014F9676
:1015F0000E9412029FEF2DE389E491502040804029
:10160000E1F700C0000082E00E94D50189E491E08A
:101610000E9412029FEF2DE389E491502040804008
:10162000E1F700C0000081E00E94D5018FE39FE157
:101630000197F1F700C00000A2CF60910401709102
:10164000050182E090E00E940B1782E090E00E948A
:10165000F41690931A0280931902109205011092C9
:10166000040181E00E94D5018FE39FE10197F1F72A
:1016700000C0000087E591E00E9412029FEF23ED79
:1016800080E3915020408040E1F700C000009924A1
:1016900093943324339473CF9FEF2AE683E09150E1
:1016A00020408040E1F700C0000036996ACF809169
:1016B0000401909105010196909305018093040126
:1016C00060CF9FEF2AE683E0915020408040E1F711
:1016D00000C000001E9957CF809104019091050130
:1016E0008A9750F0809104019091050101979093A1
:1016F00005018093040147CFF0920501E0920401B7
:1017000042CF33243394442443945DCE2224239443
:1017100088248394912C511084C08091150290915B
:1017200016029F938F93BF92AF921F930F930E94C5
:101730006E1680E80E94D501C8010E9412020F9027
:101740000F900F900F900F900F90379932C09FEF2E
:101750002AE683E0915020408040E1F700C000007D
:10176000379927C0609115027091160280E090E0D1
:101770000E940B1780E090E00E94F41690931602EE
:101780008093150261E086E090E00E940F1786E0EA
:1017900090E00E94EC1680931C0281E00E94D5012B
:1017A0008FE39FE10197F1F700C0000055245394A7
:1017B000212C369914C09FEF2AE683E091502040F7
:1017C0008040E1F700C00000369909C08091150201
:1017D00090911602019690931602809315021E991D
:1017E0009ACF9FEF2AE683E0915020408040E1F7B6
:1017F00000C000001E998FCF8091150290911602B3
:10180000029750F0809115029091160201979093E3
:101810001602809315027FCF9092160280921502D5
:101820007ACF552453942110CBCDA6960FB6F894B9
:10183000DEBF0FBECDBFDF91CF911F910F91FF9003
:10184000EF90DF90CF90BF90AF909F908F907F9060
:101850006F905F904F903F902F9008956ADD1092A7
:1018600014020895EF92FF920F931F93CF93DF938B
:10187000CDB7DEB76E970FB6F894DEBF0FBECDBF03
:101880008091190290911A029F938F938CE6E82E13
:1018900081E0F82EFF92EF928E010F5F1F4F1F9392
:1018A0000F930E946E16B80186E091E00E944303F8
:1018B00080911702909118029F938F93FF92EF925D
:1018C0001F930F930E946E16B80186E091E00E946C
:1018D000430380911502909116029F938F93FF927C
:1018E000EF921F930F930E946E16B80186E091E06D
:1018F0000E9443038BB188701F928F93FF92EF92E7
:101900001F930F930E946E16B80186E091E00E942B
:1019100043030E9446029F938F93FF92EF921F937F
:101920000F930E946E16B80186E091E00E94430377
:101930000E9446020E94AC0290930501809304012C
:1019400080910401909105019F938F9380E791E02E
:101950009F938F931F930F930E946E160FB6F89468
:10196000DEBF0FBECDBFB80186E091E00E94430309
:1019700086E091E00E94CC03C2DC6E960FB6F8942C
:10198000DEBF0FBECDBFDF91CF911F910F91FF90B2
:10199000EF9008950F931F93CF93DF93CDB7DEB7EA
:1019A0006E970FB6F894DEBF0FBECDBF80910101D8
:1019B000882331F180E80E94D50185E791E00E94FB
:1019C000120263E871E086E091E00E94430386E042
:1019D00091E00E94CC0393DC109201012FEF8EE97D
:1019E00094E2215080409040E1F700C0000081E087
:1019F0000E94D5018FE39FE10197F1F700C000003D
:101A000031DF2091040130910501809117029091FE
:101A100018028217930770F15B9A81E080930201AC
:101A200080910301882331F100E010E080911502DC
:101A300090911602A80160E070E0A0E0B0E032E012
:101A4000880F991FAA1FBB1F3A95D1F7481759074E
:101A50006A077B0768F406DF9FEF24E38CE0915070
:101A600020408040E1F700C000000F5F1F4FDECF35
:101A70001092030120910401309105018091190217
:101A800090911A022817390770F15B9881E08093D2
:101A9000030180910201882331F100E010E0809180
:101AA000150290911602A80160E070E0A0E0B0E09D
:101AB00022E0880F991FAA1FBB1F2A95D1F748174C
:101AC00059076A077B0768F4CDDE9FEF24E38CE0BB
:101AD000915020408040E1F700C000000F5F1F4F91
:101AE000DECF10920201609104017091050180E047
:101AF00090E00ED327E23EE945EF5BE397D328E081
:101B000032E34DE95EE39FD29F938F937F936F9370
:101B100086EA91E09F938F938E010F5F1F4F1F9373
:101B20000F930E946E1680E80E94D501C8010E94A2
:101B300012020FB6F894DEBF0FBECDBF1E9916C0BD
:101B40009FEF2AE683E0915020408040E1F700C0FB
:101B500000001E990BC01092140281E00E94D50172
:101B60008FE39FE10197F1F700C000009FEF24E3AE
:101B70008CE0915020408040E1F700C000006E965C
:101B80000FB6F894DEBF0FBECDBFDF91CF911F918E
:101B90000F91089520910401309105018091170261
:101BA0009091180282179307F0F05B9A81E080937E
:101BB0000201809103018823B1F080E090E0209140
:101BC0001502309116028217930758F42FEF33ED68
:101BD00040E3215030404040E1F700C00000019652
:101BE000EECF109203012091040130910501809104
:101BF000190290911A0228173907F8F05B9881E0D2
:101C00008093030180910201811101C0089580E059
:101C100090E020911502309116028217930758F434
:101C20002FEF33ED40E3215030404040E1F700C05A
:101C300000000196EECF1092020108950F931F93BA
:101C4000CF93DF93CDB7DEB76E970FB6F894DEBFB4
:101C50000FBECDBF8091140290910001981721F022
:101C60008093000180931302369915C02FEF8AE606
:101C700093E0215080409040E1F700C00000369989
:101C80000AC080911302823020F48F5F8093130288
:101C900002C010921302379919C02FEF8AE693E021
:101CA000215080409040E1F700C0000037990EC0FD
:101CB00080911302813041F0823041F4809314020C
:101CC00081E08093010102C080931402809113028D
:101CD00090911202981759F08093120281E00E94AD
:101CE000D5018FE39FE10197F1F700C000008091DB
:101CF0001302813009F43DC048F0823009F040C041
:101D000080E80E94D5018DEC91E038C00E94460227
:101D10000E94AC029093050180930401609104013C
:101D20007091050180E090E0F3D127E23EE945EFB4
:101D30005BE37CD228E032E34DE95EE384D19F93FC
:101D40008F937F936F9387EB91E09F938F938E0197
:101D50000F5F1F4F1F930F93C1D780E80E94D501DB
:101D6000C8010E9412020FB6F894DEBF0FBECDBFAD
:101D700007C080E80E94D50183EC91E00E94120226
:101D800009DF6E960FB6F894DEBF0FBECDBFDF91B0
:101D9000CF911F910F91089580911402813029F005
:101DA00018F0823019F0089549CF58CDF3CD84B79B
:101DB000877F84BF0FB6F894A895809160008861F2
:101DC00080936000109260000FBE90E080E80FB634
:101DD000F89480936100909361000FBE0E94E1012E
:101DE000539A3E98469A3F98479A26982E9A0E9470
:101DF0003B010E94990203C8CF93DF93CDB7DEB7B2
:101E00006E970FB6F894DEBF0FBECDBFD0DF6DE189
:101E100072E086E091E00E942004789486E090E0F1
:101E2000DBD780931C0289E2E82E81E0F82E8E0138
:101E30000F5F1F4F99E3C92E91E0D92E2DE5A22EF9
:101E400021E0B22E80911B028111AAC080911C0258
:101E500081110EC06EDA81E00E94D5018FE39FE10F
:101E60000197F1F700C0000081E080931B0298C049
:101E700082E090E0B9D790931A028093190284E02F
:101E800090E0B2D7909318028093170280E090E020
:101E9000ABD7909316028093150260911702709150
:101EA000180280E090E034D127E23EE945EF5BE3A1
:101EB000BDD128E032E34DE95EE3C5D09F938F9317
:101EC0007F936F93FF92EF921F930F9307D780E852
:101ED0000E94D501C8010E9412029FEF23ED80E30A
:101EE000915020408040E1F700C00000609119024D
:101EF00070911A0280E090E00BD127E23EE945EFB5
:101F00005BE394D128E032E34DE95EE39CD09F93FC
:101F10008F937F936F93DF92CF921F930F93DED6B1
:101F200080E80E94D501C8010E9412029FEF23EDB4
:101F300080E3915020408040E1F700C0000081E044
:101F40000E94D5018FE39FE10197F1F700C00000E7
:101F500080911502909116029F938F93BF92AF923A
:101F60001F930F93BBD6C8010E9412029FEF23ED6F
:101F700080E3915020408040E1F700C0000081E004
:101F80000E94D5018FE39FE10197F1F700C00000A7
:101F900081E080931B020FB6F894DEBF0FBECDBF69
:101FA000FBDE9FEF24E38CE0915020408040E1F77E
:101FB00000C0000047CF81E00E94D5018FE39FE180
:101FC0000197F1F700C0000082ED91E00E9412023B
:101FD0009FEF29E688E1915020408040E1F700C062
:101FE000000081E00E94D5018FE39FE10197F1F7A6
:101FF00000C00000089581E00E94D5018FE39FE1B9
:102000000197F1F700C000008EED91E00E941202EE
:102010009FEF29E688E1915020408040E1F700C021
:10202000000081E00E94D5018FE39FE10197F1F765
:1020300000C00000089586E091E00C941E0386E045
:1020400091E00C9434045058BB27AA270ED0B4C09A
:10205000A5D030F0AAD020F031F49F3F11F41EF447
:102060009AC00EF4E095E7FB90C0E92FB6D080F35C
:10207000BA17620773078407950718F071F49EF585
:10208000CEC00EF4E0950B2EBA2FA02D0B01B90196
:1020900090010C01CA01A0011124FF27591B99F0DE
:1020A000593F50F4503E68F11A16F040A22F232FEA
:1020B000342F4427585FF3CF469537952795A7953A
:1020C000F0405395C9F77EF41F16BA0B620B730BE1
:1020D000840BBAF09150A1F0FF0FBB1F661F771F52
:1020E000881FC2F70EC0BA0F621F731F841F48F407
:1020F000879577956795B795F7959E3F08F0B3CF8D
:102100009395880F08F09927EE0F97958795089576
:10211000E89409C097FB3EF4909580957095619581
:102120007F4F8F4F9F4F9923A9F0F92F96E9BB2737
:102130009395F695879577956795B795F111F8CFB3
:10214000FAF4BB0F11F460FF1BC06F5F7F4F8F4F1E
:102150009F4F16C0882311F096E911C0772321F014
:102160009EE8872F762F05C0662371F096E8862FAC
:1021700070E060E02AF09A95660F771F881FDAF703
:10218000880F9695879597F9089597F99F6780E846
:1021900070E060E008959FEF80EC089500240A94B9
:1021A0001616170618060906089500240A94121632
:1021B0001306140605060895092E0394000C11F465
:1021C000882352F0BB0F40F4BF2B11F460FF04C012
:1021D0006F5F7F4F8F4F9F4F089557FD9058440F6B
:1021E000551F59F05F3F71F04795880F97FB991F76
:1021F00061F09F3F79F08795089512161306140633
:10220000551FF2CF4695F1DF08C0161617061806BF
:10221000991FF1CF86957105610508940895E8949A
:10222000BB2766277727CB0197F908950BD0C4CF3A
:10223000B5DF28F0BADF18F0952309F0A6CFABCFB1
:102240001124EECFCADFA0F3959FD1F3950F50E094
:10225000551F629FF001729FBB27F00DB11D639F58
:10226000AA27F00DB11DAA1F649F6627B00DA11DFE
:10227000661F829F2227B00DA11D621F739FB00DA4
:10228000A11D621F839FA00D611D221F749F332714
:10229000A00D611D231F849F600D211D822F762FAD
:1022A0006A2F11249F5750408AF0E1F088234AF0AA
:1022B000EE0FFF1FBB1F661F771F881F91505040F6
:1022C000A9F79E3F510570F060CFAACF5F3FECF3B6
:1022D000983EDCF3869577956795B795F795E795E2
:1022E0009F5FC1F7FE2B880F911D9695879597F9F3
:1022F0000895A3E1B0E0EEE7F1E184C36C014B0186
:102300002A01FC0117821682838181FF29C3AE0155
:102310004F5F5F4F3A01F6019381F40193FD859180
:1023200093FF81914F01882309F416C3853239F454
:1023300093FD859193FF81914F01853231F4B60170
:1023400090E094D452012501E6CF10E0F12C20E07A
:102350002032A0F48B3269F030F4803259F08332AD
:1023600069F420612CC08D3239F0803339F421605A
:1023700026C02260246023C0286021C027FD27C01A
:1023800030ED380F3A3078F426FF06C0FAE01F9F90
:10239000300D1124132F13C04AE0F49E300D112488
:1023A000F32E20620CC08E3221F426FDD5C22064AB
:1023B00006C08C3611F4206802C0883641F4F4015E
:1023C00093FD859193FF81914F018111C1CF9BEBCB
:1023D000980F933018F42061805E06C09BE9980F37
:1023E000933008F064C12F7E26FF16E02F73322E43
:1023F000853619F42064322E08C0863621F4F22F77
:10240000F0683F2E02C01111115037FE07C01C3377
:1024100050F4EE24E394E10E27E00BC0183038F0BE
:1024200027E017E005C027E04CE3E42E02C0212F8F
:10243000E12C520144E0A40EB11CF20160817181D3
:10244000828193810E2DA30123D32C01098100FFEA
:1024500002C003FF07C031FC08C032FE09C030E2F1
:10246000232E07C02DE2222E04C09BE2292E01C09C
:10247000212C802F8C7019F0211051C28DC237FE93
:102480000FC0E40C04FF04C08A81813309F4EA948C
:102490001E1474F5F8E0FE1578F588E0E82E2CC0DF
:1024A00036FC2AC0812F90E0841595059CF02CEF16
:1024B00042162FEF520674F0432D4068342E0AC0A6
:1024C000E2E0F0E0EC0FFD1FE10FF11D80818033B1
:1024D00019F411501111F4CF37FE0EC0EE24E3941D
:1024E000E10E812F90E0481659062CF4141904C00F
:1024F000EE24E39401C010E037FE06C01414150466
:1025000034F4C201019605C085E090E002C081E08C
:1025100090E021100196112331F0212F30E02F5F40
:102520003F4F820F931F2F2D30E08217930714F433
:10253000F81A01C0F12C832D897041F4FF2031F08D
:10254000B60180E290E092D3FA94F8CF222021F0F5
:10255000B601822D90E08AD333FC08C0FF2031F011
:10256000B60180E390E082D3FA94F8CF37FE58C0EA
:10257000942D852D57FE02C090E080E0292E382E44
:1025800020E030E0A2014E1951095D874C87A2017D
:10259000421953095F874E87612F70E04427552702
:1025A000461B570B598B488B5FEF2516350641F4B8
:1025B000B6018EE290E02A8B3B8B58D33B892A8967
:1025C000421453046CF04C855D854215530544F468
:1025D000EE85FF85E20FF31FE60DF71D818101C037
:1025E00080E351E0251A31082F5F3F4F4889598910
:1025F0002416350644F0B60190E02A8B3B8B36D387
:102600002A893B89D1CF2414350439F49A81963331
:1026100018F4953311F404FF81E3B60190E045C04E
:102620008A81813309F00F7EB60190E01FD311112A
:1026300005C034FC16C085E690E015C0B6018EE2F8
:1026400090E014D382E0EE24E394E80EF301E80F67
:10265000F11D8081B60190E009D311508E2D99F7BC
:10266000E8CF85E490E0B60101D357FC05C04114E2
:10267000510439F404FF05C05194419451088DE28E
:1026800001C08BE2B60190E0F1D280E39AE04916F6
:1026900051042CF08F5F5AE0451A5108F7CFB6016C
:1026A00090E0E4D2B601C201C096E0D24CC18336BC
:1026B00031F0833779F0833509F054C020C05201DE
:1026C000E2E0AE0EB11CF2018081898301E010E0EE
:1026D000230113C05201F2E0AF0EB11CF2014080A1
:1026E000518026FF03C0612F70E002C06FEF7FEFC3
:1026F000C2012A8BB0D28C012A892F7714C05201D3
:10270000F2E0AF0EB11CF2014080518026FF03C001
:10271000612F70E002C06FEF7FEFC2012A8B90D271
:102720008C012A892068322E23FD18C08F2D90E05D
:102730000817190798F4B60180E290E097D2FA944E
:10274000F5CFF20137FC859137FE81912F01B6015B
:1027500090E08CD2F110FA94015011090115110585
:1027600081F7F1C0843611F0893651F5520127FF07
:1027700009C0F4E0AF0EB11CF20160817181828169
:1027800093810AC0F2E0AF0EB11CF2016081718149
:10279000072E000C880B990B2F76322E97FF09C05D
:1027A00090958095709561957F4F8F4F9F4F2068D2
:1027B000322E2AE030E0A301B1D2E82EE6183EC066
:1027C000022F853721F40F7E2AE030E01DC0097FFB
:1027D0008F3691F018F4883559F0BEC0803719F063
:1027E000883711F0B9C0006104FF09C0046007C058
:1027F00024FF08C0066006C028E030E005C020E1E4
:1028000030E002C020E132E0520107FF09C0F4E0ED
:10281000AF0EB11CF201608171818281938108C089
:10282000F2E0AF0EB11CF2016081718180E090E0B6
:10283000A30174D2E82EE6180F77302E36FE0BC0B7
:10284000332D3E7FE11650F434FE0AC032FC08C03E
:10285000332D3E7E05C00E2D332D03C00E2D01C03D
:10286000012F34FF0CC0FE01EE0DF11D808180337D
:1028700011F4397E08C032FF05C00E5F04C0832FFB
:10288000867809F00F5F33FD12C030FF06C01E2DA1
:102890000F1518F41F0D101B0F2D0F1560F4B60146
:1028A00080E290E03B8BE2D10F5F3B89F6CF0F15C2
:1028B00010F4F01A01C0F12C34FF11C0B60180E30E
:1028C00090E03B8BD3D13B8932FF16C031FD03C072
:1028D00088E790E002C088E590E0B6010CC0832F45
:1028E000867851F031FF02C08BE201C080E237FDF3
:1028F0008DE2B60190E0BAD1E11630F4B60180E382
:1029000090E0B4D11150F8CFEA94F301EE0DF11D2F
:102910008081B60190E0AAD1E110F6CF14C0F4E0B6
:10292000FF1548F584E0F81A33FE1DC0211024C0BD
:1029300003FF27C008E311E0F32DF0713F2EF801EB
:102940008491811121C0FF2009F4FDCCB60180E201
:1029500090E08CD1FA94F7CFF6018681978123C05D
:102960008FEF9FEF20C0B60180E290E07FD1FA9414
:10297000F110F9CFDBCFF12CB601822D90E076D1AA
:10298000D7CF0CE311E0D8CF31108052B60190E0E0
:102990006DD10F5F1F4FD3CF23E02F1510F483E0CD
:1029A000C2CFF12CC5CF6396E2E148C0A1E21A2E56
:1029B000AA1BBB1BFD010DC0AA1FBB1FEE1FFF1FE3
:1029C000A217B307E407F50720F0A21BB30BE40B33
:1029D000F50B661F771F881F991F1A9469F760957A
:1029E0007095809590959B01AC01BD01CF01089534
:1029F00040D0A59F900DB49F900DA49F800D911D78
:102A0000112408952F923F924F925F926F927F927E
:102A10008F929F92AF92BF92CF92DF92EF92FF92EE
:102A20000F931F93CF93DF93CDB7DEB7CA1BDB0B9A
:102A30000FB6F894DEBF0FBECDBF09942A8839883F
:102A400048885F846E847D848C849B84AA84B98446
:102A5000C884DF80EE80FD800C811B81AA81B98152
:102A6000CE0FD11D0FB6F894DEBF0FBECDBFED0166
:102A70000895A29FB001B39FC001A39F700D811D57
:102A80001124911DB29F700D811D1124911D089577
:102A9000283008F027E03327DA01990F311D87FD30
:102AA000916000966105710539F432602E5F3D93A7
:102AB00030E32A95E1F708959F3F30F080387105A3
:102AC000610509F03C5F3C5F3D93913008F0806800
:102AD000911DDF93CF931F930F93FF92EF92192FC6
:102AE000987F9695E92F96959695E90FFF27E656DC
:102AF000FE4F99273327EE24FF24A701E701059015
:102B00000894079428F4360FE71EF81E491F511D3C
:102B1000660F771F881F991F0694A1F705900794E9
:102B200028F4E70EF81E491F561FC11D770F881F96
:102B3000991F661F0694A1F70590079428F4F80ED4
:102B4000491F561FC71FD11D880F991F661F771F6A
:102B50000694A1F70590079420F4490F561FC71F4C
:102B6000D81F990F661F771F881F0694A9F78491B5
:102B70001095177041F0D695C79557954795F794DE
:102B8000E7941A95C1F7E0E4F1E068941590159187
:102B900035916591959105907FE27395E118F10A61
:102BA000430B560BC90BD009C0F7E10CF11E431FB4
:102BB000561FC91FD01D7EF4703311F48A95E6CFDD
:102BC000E894015030F0080F0AF40027021708F4C7
:102BD000202F2395022F7A3328F079E37D932A95CD
:102BE000E9F710C07D932A9589F606949795679525
:102BF000379517951794E118F10A430B560BC90B3B
:102C0000D00998F023957E9173957A3308F070E39C
:102C10007C932013B8F77E9170617D9330F083959B
:102C200071E37D9370E32A95E1F71124EF90FF9013
:102C30000F911F91CF91DF91992787FD909508956E
:102C4000FC010590615070400110D8F78095909577
:102C50008E0F9F1F0895FC0161507040019001107C
:102C6000D8F7809590958E0F9F1F08950F931F930F
:102C7000CF93DF93FB01238121FD03C08FEF9FEFF3
:102C800028C022FF16C04681578124813581421712
:102C9000530744F4A081B1819D012F5F3F4F3183E1
:102CA00020838C93268137812F5F3F4F3783268384
:102CB00010C0EB01092F182F0084F185E02D099534
:102CC000892BE1F68E819F8101969F838E83812FD0
:102CD000902FDF91CF911F910F910895AEE0B0E05A
:102CE000E3E7F6E19DCE0D891E8986E08C831A8389
:102CF00009838FEF9FE79E838D83AE01475E5F4F11
:102D00006F89788DCE010196F4DA2F813885F8012C
:102D1000E20FF31F10822E96E4E09ECEFA01AA275E
:102D2000283051F1203181F1E8946F936E7F6E5F0E
:102D30007F4F8F4F9F4FAF4FB1E03ED0B4E03CD0BC
:102D4000670F781F891F9A1FA11D680F791F8A1F9F
:102D5000911DA11D6A0F711D811D911DA11D20D006
:102D600009F468943F912AE0269F11243019305DC0
:102D70003193DEF6CF010895462F4770405D4193B1
:102D8000B3E00FD0C9F7F6CF462F4F70405D4A33FE
:102D900018F0495D31FD4052419302D0A9F7EACFC6
:102DA000B4E0A6959795879577956795BA95C9F7F5
:102DB00000976105710508959B01AC010A2E0694E8
:102DC0005795479537952795BA95C9F7620F731FA1
:102DD000841F951FA01D0895F999FECF92BD81BD56
:102DE000F89A992780B50895A8E1B0E042E050E054
:102DF00026C0262FF999FECF92BD81BDF89A019782
:102E000000B4021639F01FBA20BD0FB6F894FA9A32
:102E1000F99A0FBE08950196272FECDFEACF262FEF
:102E2000F999FECF1FBA92BD81BD20BD0FB6F894AF
:102E3000FA9AF99A0FBE01960895DC01CB01FC01C4
:102E4000F999FECF06C0F2BDE1BDF89A319600B403
:0E2E50000D9241505040B8F70895F894FFCF0E
:102E5E00020101012900008310000001041000008E
:102E6E0001820800000100000000000000000000C8
:102E7E00004FC1B8B2BA61210050206D696E3A2080
:102E8E00252E32662061BFBC0050206D61783A203D
:102E9E00252E32662061BFBC0050206D6178203C2B
:102EAE002050206D696E0050206F6B21005420520F
:102EBE0065673A2025332E306420630025640900AF
:102ECE0025640D0A00546573742072756E6E696EFA
:102EDE006721004D6178094D696E0954205265676E
:102EEE000952656C6179094F726967696E616C0987
:102EFE00534D410D0A005020746573743A20252EEF
:102F0E0032662061BFBC00503A20252E3266206109
:102F1E00BFBC00486163BF706FB9BAB80054656337
:102F2E00BF0055534220636F6E6E65637400555338
:0E2F3E004220646973636F6E6E6563740000F9
:00000001FF
