S00E00004C43445F56502E737265633E
S11300000C94D7000C94F4000C94F4000C94F400B9
S11300100C94F4000C94F4000C94F4000C94F4008C
S11300200C94F4000C94F4000C94F4000C94F4007C
S11300300C94F4000C94F4000C94F4000C94F4006C
S11300400C94F4000C94F4000C94F4000C94F4005C
S11300500C94F4000C94F4000C94F4000C94F4004C
S11300600C94F4000C94F4000C94F4000C94F4003C
S11300700C94F4000C94F4000C94F4000C94F4002C
S11300800C94F4000C94F4000C94F4000C94F4001C
S11300900C94F4000C94F4000C94F4000C94F4000C
S11300A00C94F4000C94F4000C94F4006E616E0053
S11300B0696E660000407A10F35A00A0724E180967
S11300C00010A5D4E80000E87648170000E40B54BB
S11300D0020000CA9A3B000000E1F505000080968A
S11300E09800000040420F000000A08601000000BC
S11300F0102700000000E803000000006400000076
S113010000000A00000000000100000000002C763E
S1130110D888DC674F0823DFC1DFAE59E1B1B79659
S1130120E5E3E453C63AE651997696E8E6C28426B6
S1130130EB898C9B62ED407C6FFCEFBC9C9F40F292
S1130140BAA56FA5F490055A2AF75C936B6CF9670E
S11301506DC11BFCE0E40D47FEF520E6B500D0EDD3
S1130160902E0300943577050080841E080000203B
S11301704E0A000000C80C333333330F986E1283D9
S11301801141EF8D2114893BE65516CFFEE6DB18AD
S1130190D1844B381BF77C1D901DA4BBE424203272
S11301A084725E228100C9F124ECA1E53D2711246B
S11301B01FBECFEFDAE0DEBFCDBF11E0A0E0B1E0BB
S11301C0ECE8FAE102C005900D92A235B107D9F727
S11301D021E0A2E5B1E001C01D92AA35B207E1F722
S11301E00E949C030C94440D0C94000081E48093C1
S11301F07C0087E880937A00EBE7F0E080818062FE
S11302008083089595ED9A95F1F700008898982FCA
S1130210907F84FF02C08C9A01C08C9885FF02C035
S11302208D9A01C08D9886FF02C08E9A01C08E9867
S1130230992314F48F9A01C08F98899A8AE08A9539
S1130240F1F700C08998089595ED9A95F1F70000AB
S11302508898982F907F84FF02C08C9A01C08C9854
S113026085FF02C08D9A01C08D9886FF02C08E9AC8
S113027001C08E98992314F48F9A01C08F98899A9B
S11302809AE09A95F1F700C089988295982F907F0B
S113029084FF02C08C9A01C08C9885FF02C08D9A9D
S11302A001C08D9886FF02C08E9A01C08E98992352
S11302B014F48F9A01C08F98899A8AE08A95F1F78D
S11302C000C08998089595ED9A95F1F70000889AF1
S11302D0982F907F84FF02C08C9A01C08C9885FF70
S11302E002C08D9A01C08D9886FF02C08E9A01C00B
S11302F08E98992314F48F9A01C08F98899A9AE062
S11303009A95F1F700C089988295982F907F84FF81
S113031002C08C9A01C08C9885FF02C08D9A01C0DE
S11303208D9886FF02C08E9A01C08E98992314F48A
S11303308F9A01C08F98899A8AE08A95F1F700C054
S113034089980895849A859A869A879A809A819A38
S11303502FEF83EF91E0215080409040E1F700C0FF
S1130360000080E30E9402018FE39CE90197F1F70A
S113037000C0000080E30E9402018FE39FE1019727
S1130380F1F700C0000080E30E94020188E20E94AD
S1130390020188E20E9424018CE00E94240181E091
S11303A00E9424018FE39FE10197F1F700C0000050
S11303B086E00E94240108951F93CF93DF93FC01EC
S11303C02081222389F0182FC82FD92F07C08C2F02
S11303D0811B883019F480EC0E94240189910E94C9
S11303E0630188818111F3CFDF91CF911F9108952B
S11303F02F923F924F925F926F927F928F929F9231
S1130400AF92BF92CF92DF92EF92FF920F931F931E
S1130410CF93DF93CDB7DEB76E970FB6F894DEBFF8
S11304200FBECDBF6C012B010F2EF8E08F2EF1E033
S11304309F2EF02D8E010F5F1F4F602E712E0F2EF9
S1130440F8E1AF2EF1E0BF2EF02D56C10E949505C4
S11304507C01BC0180E090E00E94D0062DEC3CECD5
S11304604CE453E40E9468062DEC3CEC4CE45EE35F
S11304700E9403062CE53AEA42ED5BE30E9468061B
S113048020E932EB41E25CE30E945E079F938F9385
S11304907F936F939F928F921F930F930E94930C5D
S11304A080E80E942401862D972D0E94DC010FB65E
S11304B0F894DEBF0FBECDBF379915C0B70182E0F7
S11304C090E00E942F0D82E090E00E941B0D6C01D1
S11304D09FEF22E587E0915020408040E1F700C083
S11304E000005B9802C0C32CD22C36990AC05B9AD8
S11304F09FEF22E587E0915020408040E1F700C063
S113050000001E990AC05B989FEF22E587E0915096
S113051020408040E1F700C000009FEF25EA8EE014
S1130520915020408040E1F700C00000C114D10484
S113053009F48CCF4114510409F080C00E94950540
S11305407C01BC0180E090E00E94D0062DEC3CECE4
S11305504CE453E40E9468062DEC3CEC4CE45EE36E
S11305600E9403062CE53AEA42ED5BE30E9468062A
S113057020E932EB41E25CE30E945E079F938F9394
S11305807F936F93BF92AF921F930F930E94930C2C
S113059080E80E942401862D972D0E94DC010FB66D
S11305A0F894DEBF0FBECDBF379920C0B70180E0FD
S11305B090E00E942F0D80E090E00E941B0D7C01D2
S11305C061E084E090E00E94210D84E090E00E94CC
S11305D0130D809355019FEF22E587E09150204051
S11305E08040E1F700C000005B9802C0E42CF52CC9
S11305F036990AC05B9A9FEF22E587E0915020402C
S11306008040E1F700C000001E990AC05B989FEF8C
S113061022E587E0915020408040E1F700C00000CF
S11306209FEF25EA8EE0915020408040E1F700C022
S11306300000E114F10409F481CF01C07201CE1469
S1130640DF0408F460C081E00E9424018FE39FE18D
S11306500197F1F700C00000E0E0F1E0A62DB72D0E
S113066088E001900D928A95E1F7862D972D0E94DE
S1130670DC019FEF2DE389E4915020408040E1F7B5
S113068000C0000082E00E94240188E291E00E9400
S1130690DC019FEF2DE389E4915020408040E1F795
S11306A000C0000060E084E090E00E94210D60E062
S11306B070E080E090E00E942F0D60E070E082E046
S11306C090E00E942F0D84E090E00E94130D80932F
S11306D0550180E090E00E941B0D2C0182E090E027
S11306E00E941B0D6C0181E00E9424018FE39FE1B5
S11306F00197F1F700C00000C114D10409F01ACF2A
S11307003C2C2D2CA3CE6E960FB6F894DEBF0FBEF4
S1130710CDBFDF91CF911F910F91FF90EF90DF90AC
S1130720CF90BF90AF909F908F907F906F905F908D
S11307304F903F902F900895CF93DF93CDB7DEB7BE
S1130740EC970FB6F894DEBF0FBECDBF84E090E007
S11307500E94130D809355012FEF81EE94E02150F8
S113076080409040E1F700C000000E94A201539A2B
S11307703E98469A3F98479A26982E9A0E94F600E9
S11307800F2EF6E3CF2EF1E0DF2EF02D7E012FE1C8
S1130790E20EF11C0F2EF8E0AF2EF1E0BF2EF02D8B
S11307A08E010F5F1F4F0F2EF8E16F2EF1E07F2EA9
S11307B0F02D8091550181113FC060E084E090E00C
S11307C00E94210D60E070E080E090E00E942F0D17
S11307D060E070E082E090E00E942F0D80E090E005
S11307E00E941B0D4C01909357018093560182E0A7
S11307F090E00E941B0D9093590180935801B4011D
S11308000E94F80180E090E00E941B0D9093570134
S11308108093560182E090E00E941B0D9093590151
S11308208093580181E00E9424018FE39FE10197A6
S1130830F1F700C0000010C080E090E00E941B0DA2
S1130840909357018093560182E090E00E941B0D23
S113085090935901809358010E94950590935401F7
S113086080935301BC0180E090E00E94D0062DECFF
S11308703CEC4CE453E40E9468062DEC3CEC4CE464
S11308805EE30E9403062CE53AEA42ED5BE30E9434
S1130890680620E932EB41E25CE30E945E079F9325
S11308A08F937F936F93DF92CF92FF92EF920E9488
S11308B0930C80E80E942401C7010E94DC010FB65A
S11308C0F894DEBF0FBECDBF209153013091540187
S11308D080915801909159018217930708F05B9A0F
S11308E02091530130915401809156019091570108
S11308F02817390708F05B98379980C06091580130
S11309007091590180E090E00E94D0062DEC3CECFF
S11309104CE453E40E9468062DEC3CEC4CE45EE3AA
S11309200E9403062CE53AEA42ED5BE30E94680666
S113093020E932EB41E25CE30E945E079F938F93D0
S11309407F936F93BF92AF921F930F930E94930C68
S113095080E80E942401C8010E94DC019FEF2DE37E
S113096089E4915020408040E1F700C0000060918C
S113097056017091570180E090E00E94D0062DEC62
S11309803CEC4CE453E40E9468062DEC3CEC4CE453
S11309905EE30E9403062CE53AEA42ED5BE30E9423
S11309A0680620E932EB41E25CE30E945E079F9314
S11309B08F937F936F937F926F921F930F930E94F5
S11309C0930C80E80E942401C8010E94DC019FEF7F
S11309D02DE389E4915020408040E1F700C00000FD
S11309E081E00E9424018FE39FE10197F1F700C0A9
S11309F000000FB6F894DEBF0FBECDBF36996FC0AE
S1130A001E996DC09FEF22E587E091502040804001
S1130A10E1F700C0000081E00E9424018FE39FE120
S1130A200197F1F700C0000082E491E00E94DC012C
S1130A3081E037993DC09FEF22E587E09150204047
S1130A408040E1F700C0000060E084E090E00E9494
S1130A50210D60E070E080E090E00E942F0D60E0E6
S1130A6070E082E090E00E942F0D84E090E00E940C
S1130A70130D8093550180E090E00E941B0D90932C
S1130A8057018093560182E090E00E941B0D9093E1
S1130A905901809358015B9881E00E9424018FE3FF
S1130AA09FE10197F1F700C000001E9918C002C031
S1130AB01E9913C09FEF22E587E0915020408040AB
S1130AC0E1F700C0000081E00E9424018FE39FE170
S1130AD00197F1F700C0000002C08111AACF9FEF77
S1130AE024E38CE0915020408040E1F700C00000F6
S1130AF060CE6817790760F04817590730F0CB01CA
S1130B004617570788F4CA0108958617970740F0D7
S1130B104617570728F04817590730F4CA010895B3
S1130B206817790708F4CB0108956F927F928F922A
S1130B309F92AF92BF92CF92DF92EF92FF920F9368
S1130B401F93CF93DF93CDB7DEB72C970FB6F894EE
S1130B50DEBF0FBECDBF5E0187E0A80EB11C3E0113
S1130B60ADE06A0E711C45010AE710E00F2EF8E7AC
S1130B70CF2ED12CF02D0F2EF9E7EF2EF12CF02DE6
S1130B8022C0D8018C9180648C93D8018C9186FD0D
S1130B90FCCFD6018C91D7012C9190E0922B8193BC
S1130BA09193E815F90569F74D815E816B817C812C
S1130BB089819A810E947905F501819391935F015E
S1130BC0E615F70519F0FE013196DBCF4B855C8500
S1130BD069857A858F8198850E9479052C960FB650
S1130BE0F894DEBF0FBECDBFDF91CF911F910F915F
S1130BF0FF90EF90DF90CF90BF90AF909F908F9039
S1130C007F906F9008955058BB27AA270ED01CC11F
S1130C100DD130F012D120F031F49F3F11F41EF4C5
S1130C2002C10EF4E095E7FBF8C0E92F1ED180F372
S1130C30BA17620773078407950718F071F49EF5D5
S1130C4036C10EF4E0950B2EBA2FA02D0B01B9017D
S1130C5090010C01CA01A0011124FF27591B99F02E
S1130C60593F50F4503E68F11A16F040A22F232F3A
S1130C70342F4427585FF3CF469537952795A7958A
S1130C80F0405395C9F77EF41F16BA0B620B730B31
S1130C90840BBAF09150A1F0FF0FBB1F661F771FA2
S1130CA0881FC2F70EC0BA0F621F731F841F48F457
S1130CB0879577956795B795F7959E3F08F0B3CFDD
S1130CC09395880F08F09927EE0F979587950895C7
S1130CD00CD0BAC0B2D040F0A9D030F021F45F3FBC
S1130CE019F09BC05111E4C09EC0BFD098F3992362
S1130CF0C9F35523B1F3951B550BBB27AA276217DC
S1130D007307840738F09F5F5F4F220F331F441F20
S1130D10AA1FA9F333D00E2E3AF0E0E830D0915058
S1130D205040E695001CCAF729D0FE2F27D0660F45
S1130D30771F881FBB1F261737074807AB07B0E884
S1130D4009F0BB0B802DBF01FF2793585F4F2AF09A
S1130D509E3F510568F061C0ABC05F3FECF3983E25
S1130D60DCF3869577956795B795F7959F5FC9F7F7
S1130D70880F911D9695879597F90895E1E0660F80
S1130D80771F881FBB1F621773078407BA0720F0F9
S1130D90621B730B840BBA0BEE1F88F7E095089562
S1130DA0E89409C097FB3EF4909580957095619501
S1130DB07F4F8F4F9F4F9923A9F0F92F96E9BB27B7
S1130DC09395F695879577956795B795F111F8CF33
S1130DD0FAF4BB0F11F460FF1BC06F5F7F4F8F4F9E
S1130DE09F4F16C0882311F096E911C0772321F094
S1130DF09EE8872F762F05C0662371F096E8862F2C
S1130E0070E060E02AF09A95660F771F881FDAF782
S1130E10880F9695879597F9089597F99F6780E8C5
S1130E2070E060E008959FEF80EC089500240A9438
S1130E301616170618060906089500240A941216B1
S1130E401306140605060895092E0394000C11F4E4
S1130E50882352F0BB0F40F4BF2B11F460FF04C091
S1130E606F5F7F4F8F4F9F4F089557FD9058440FEA
S1130E70551F59F05F3F71F04795880F97FB991FF5
S1130E8061F09F3F79F087950895121613061406B2
S1130E90551FF2CF4695F1DF08C01616170618063F
S1130EA0991FF1CF86957105610508940895E8941A
S1130EB0BB2766277727CB0197F908950BD0C4CFBA
S1130EC0B5DF28F0BADF18F0952309F0A6CFABCF31
S1130ED01124EECFCADFA0F3959FD1F3950F50E014
S1130EE0551F629FF001729FBB27F00DB11D639FD8
S1130EF0AA27F00DB11DAA1F649F6627B00DA11D7E
S1130F00661F829F2227B00DA11D621F739FB00D23
S1130F10A11D621F839FA00D611D221F749F332793
S1130F20A00D611D231F849F600D211D822F762F2C
S1130F306A2F11249F5750408AF0E1F088234AF029
S1130F40EE0FFF1FBB1F661F771F881F9150504075
S1130F50A9F79E3F510570F060CFAACF5F3FECF335
S1130F60983EDCF3869577956795B795F795E79561
S1130F709F5FC1F7FE2B880F911D9695879597F972
S1130F800895A3E1B0E0E7ECF7E00C943C0B7C019E
S1130F901B016A01FC0117821682838181FF66C3EB
S1130FA0BE016F5F7F4F4B01F7019381F10193FD08
S1130FB0859193FF81911F01882309F453C38532DE
S1130FC039F493FD859193FF81911F01853239F4A2
S1130FD0B70190E00E94610C56016501E5CF10E075
S1130FE0512C20E02032A0F48B3269F030F48032AE
S1130FF059F0833269F420612CC08D3239F080338A
S113100039F4216026C02260246023C0286021C0F6
S113101027FD27C030ED380F3A3078F426FF06C09C
S1131020FAE01F9F300D1124132F13C06AE0569E5F
S1131030300D1124532E20620CC08E3221F426FD73
S113104011C3206406C08C3611F4206802C08836AF
S113105041F4F10193FD859193FF81911F01811169
S1131060C1CF9BEB980F933018F42061805E06C0CB
S11310709BE9980F933008F0AAC12F7E26FF16E053
S11310802F73722E853621F4F22FF0647F2E08C060
S1131090863621F4622F6068762E02C01111115039
S11310A077FE07C01C3348F444244394410E27E0E0
S11310B00BC0183030F4212F06C027E04CE3442E37
S11310C003C027E017E0412C560174E0A70EB11CC1
S11310D0F6016081718182819381042DA4010E94B3
S11310E0730B6C01098100FF02C003FF06C071FC91
S11310F007C072FC08C0612C08C03DE2632E05C025
S11311002BE2622E02C090E2692E802F8C7099F13E
S1131110662011F084E001C083E0851510F0512CA5
S11311200BC0581A73FC08C0B70180E290E00E941B
S1131130610C5A94C9F7F3CF662029F0B701862DC4
S113114090E00E94610C03FD03C000EB10E002C0BC
S11311500CEA10E0F72DF0717F2EF80184918823BA
S113116009F476C271108052B70190E00E94610CBC
S11311700F5F1F4FF2CF77FE0FC04C0C04FF04C06B
S11311808A81813309F44A94141474F5F8E0F4154F
S113119078F588E0482E2CC076FC2AC0812F90E098
S11311A08C159D059CF06CEFC6166FEFD60674F097
S11311B0772D7068772E0AC0E2E0F0E0EC0FFD1F97
S11311C0E10FF11D8081803319F411501111F4CF16
S11311D077FE0EC044244394410E812F90E0C8163C
S11311E0D9062CF41C1904C04424439401C010E013
S11311F077FE07C01C141D043CF496012F5F3F4F7B
S113120005C025E030E002C021E030E0662011F0A6
S11312102F5F3F4F112331F0412F50E04F5F5F4F5D
S1131220240F351F452D50E02417350714F4521AA6
S113123001C0512C872D897049F4552039F0B7012C
S113124080E290E00E94610C5A94F7CF662029F066
S1131250B701862D90E00E94610C73FC09C05520F3
S113126039F0B70180E390E00E94610C5A94F7CF03
S113127077FE5FC09C2D8D2DD7FE02C090E080E0EC
S1131280692E782E40E050E0C601841991099D87AB
S11312908C87960126193709280D391D812F90E076
S11312A0EE27FF27E81BF90BFF87EE87FFEF6F168A
S11312B07F0669F4B7018EE290E02B8B3A8B488B62
S11312C0598B0E94610C598948893A892B89C61423
S11312D0D70454F06C857D85661577052CF4F901E7
S11312E0E40FF51F818101C080E371E0671A710882
S11312F04F5F5F4FEE85FF856E167F066CF0B7017A
S113130090E02B8B3A8B488B598B0E94610C2B8974
S11313103A8948895989CACF6C147D0439F49A8171
S1131320963318F4953311F404FF81E3B70190E088
S11313304BC08A81813309F00F7EB70190E00E948F
S1131340610C111105C074FE18C085E490E017C04B
S1131350B7018EE290E00E94610C82E066246394FF
S1131360680EF401E80FF11D8081B70190E00E943E
S1131370610C115041F3862DF1CF85E690E0B70161
S11313800E94610CD7FC05C0C114D10439F404FFD8
S113139005C0D194C194D1088DE201C08BE2B7019C
S11313A090E00E94610C80E36AE0C616D1042CF040
S11313B08F5FFAE0CF1AD108F7CFB70190E00E940F
S11313C0610CB701C601C0960E94610C41C183360D
S11313D031F0833779F0833509F058C021C05601C4
S11313E072E0A70EB11CF6018081898301E010E050
S11313F0640114C05601F2E0AF0EB11CF601C080C6
S1131400D18026FF03C0612F70E002C06FEF7FEF31
S1131410C6012B8B0E94560C8C012B892F7715C08B
S11314205601F2E0AF0EB11CF601C080D18026FF58
S113143003C0612F70E002C06FEF7FEFC6012B8BFA
S11314400E944B0C8C012B892068722E23FD1AC03C
S1131450852D90E008171907A8F4B70180E290E001
S11314600E94610C5A94F4CFF60177FC859177FEC3
S113147081916F01B70190E00E94610C51105A9460
S1131480015011090115110579F7E2C0843611F0F4
S1131490893651F5560127FF09C0F4E0AF0EB11C9F
S11314A0F60160817181828193810AC0F2E0AF0EFE
S11314B0B11CF60160817181882777FD8095982F92
S11314C0022F0F7697FF08C09095809570956195CF
S11314D07F4F8F4F9F4F00682AE030E0A4010E94A5
S11314E0B50CC82EC8183EC0022F853721F40F7ED4
S11314F02AE030E01DC0097F8F3691F018F488355A
S113150059F0B0C0803719F0883711F0ABC00061D2
S113151004FF09C0046007C024FF08C0066006C0B9
S113152028E030E005C020E130E002C020E132E0F4
S1131530560107FF09C0F4E0AF0EB11CF60160814B
S113154071818281938108C0F2E0AF0EB11CF60173
S11315506081718180E090E0A4010E94B50CC82EE6
S1131560C8180F7706FF0BC0202F2E7FC11650F42A
S113157004FF0AC002FD08C0202F2E7E05C0DC2C0B
S1131580202F03C0DC2C01C0D12E24FF0DC0FE018E
S1131590EC0DF11D8081803311F4297E09C022FFF6
S11315A006C0D394D39404C0822F867809F0D394D0
S11315B023FD13C020FF06C01C2DD51418F4150DEF
S11315C01D19D52CD51468F4B70180E290E02B8B5B
S11315D00E94610CD3942B89F5CFD51410F45D18B7
S11315E001C0512C24FF12C0B70180E390E02B8B83
S11315F00E94610C2B8922FF17C021FF03C088E5DC
S113160090E002C088E790E0B7010CC0822F867892
S113161059F021FD02C080E201C08BE227FD8DE27A
S1131620B70190E00E94610CC11638F4B70180E361
S113163090E00E94610C1150F7CFCA94F401EC0DB4
S1131640F11D8081B70190E00E94610CC110F5CFBB
S1131650552009F4C2CCB70180E290E00E94610CED
S11316605A94F6CFF7018681978102C08FEF9FEFDE
S11316706396E2E10C94580B2F923F924F925F9243
S11316806F927F928F929F92AF92BF92CF92DF928E
S1131690EF92FF920F931F93CF93DF93CDB7DEB7F3
S11316A0CA1BDB0B0FB6F894DEBF0FBECDBF099487
S11316B02A88398848885F846E847D848C849B84DE
S11316C0AA84B984C884DF80EE80FD800C811B81EC
S11316D0AA81B981CE0FD11D0FB6F894DEBF0FBE1B
S11316E0CDBFED010895283008F027E03327DA0153
S11316F0990F311D87FD916000966105710539F4DC
S113170032602E5F3D9330E32A95E1F708959F3FC1
S113171030F080387105610509F03C5F3C5F3D9312
S1131720913008F08068911DDF93CF931F930F933E
S1131730FF92EF92192F987F9695E92F969596959B
S1131740E90FFF27E25FFE4F99273327EE24FF249A
S1131750A701E70105900894079428F4360FE71EC3
S1131760F81E491F511D660F771F881F991F069485
S1131770A1F70590079428F4E70EF81E491F561F99
S1131780C11D770F881F991F661F0694A1F7059046
S1131790079428F4F80E491F561FC71FD11D880F40
S11317A0991F661F771F0694A1F70590079420F4EC
S11317B0490F561FC71FD81F990F661F771F881F11
S11317C00694A9F784911095177041F0D695C795A2
S11317D057954795F794E7941A95C1F7E4EBF0E031
S11317E068941590159135916591959105907FE2D6
S11317F07395E118F10A430B560BC90BD009C0F7D6
S1131800E10CF11E431F561FC91FD01D7EF4703317
S113181011F48A95E6CFE894015030F0080F0AF4E9
S11318200027021708F4202F2395022F7A3328F07B
S113183079E37D932A95E9F710C07D932A9589F67B
S1131840069497956795379517951794E118F10ABB
S1131850430B560BC90BD00998F023957E917395D1
S11318607A3308F070E37C932013B8F77E917061AB
S11318707D9330F0839571E37D9370E32A95E1F7CE
S11318801124EF90FF900F911F91CF91DF91992731
S113189087FD90950895FC010590615070400110FA
S11318A0D8F7809590958E0F9F1F0895FC01615085
S11318B0704001900110D8F7809590958E0F9F1F6E
S11318C008950F931F93CF93DF93182F092FEB01E4
S11318D08B8181FD03C08FEF9FEF20C082FF10C07A
S11318E04E815F812C813D81421753077CF4E8814E
S11318F0F9819F012F5F3F4F39832883108306C0EE
S1131900E885F985812F0995892B29F72E813F8157
S11319102F5F3F4F3F832E83812F902FDF91CF91F5
S11319201F910F910895AEE0B0E0E9E9FCE00C945A
S11319304A0B0D891E8986E08C831A8309838FEFF5
S11319409FE79E838D83AE01475E5F4F6F89788DDD
S1131950CE0101960E94C107EF81F885E00FF11FC7
S113196010822E96E4E00C94660BFA01AA27283024
S113197051F1203181F1E8946F936E7F6E5F7F4F58
S11319808F4F9F4FAF4FB1E03ED0B4E03CD0670FD4
S1131990781F891F9A1FA11D680F791F8A1F911D27
S11319A0A11D6A0F711D811D911DA11D20D009F477
S11319B068943F912AE0269F11243019305D3193B9
S11319C0DEF6CF010895462F4770405D4193B3E0A2
S11319D00FD0C9F7F6CF462F4F70405D4A3318F049
S11319E0495D31FD4052419302D0A9F7EACFB4E0FA
S11319F0A6959795879577956795BA95C9F70097B2
S1131A006105710508959B01AC010A2E0694579552
S1131A10479537952795BA95C9F7620F731F841FA9
S1131A20951FA01D0895F999FECF92BD81BDF89A26
S1131A30992780B50895A8E1B0E042E050E00C9405
S1131A40360D262FF999FECF1FBA92BD81BD20BD58
S1131A500FB6F894FA9AF99A0FBE019608950E9467
S1131A60210D272F0C94220DDC01CB01FC01F999E7
S1131A70FECF06C0F2BDE1BDF89A319600B40D92D6
S10F1A8041505040B8F70895F894FFCF8F
S1131A8C4FC1B8B2BA61210050206D696E3A20255D
S1131A9C2E32662061BFBC0050206D61783A20253F
S1131AAC2E32662061BFBC0050206D6178203C2032
S1131ABC50206D696E00503A20252E32662061BF8D
S1131ACCBC0043B2706F6320BD6163BF706F65BAB5
S1051ADC000004
S9030000FC
