S00D0000412D53554E2E73726563B3
S11300000C94D7000C94F4000C94F4000C94F400B9
S11300100C94F4000C94F4000C94F4000C94F4008C
S11300200C94F4000C94F4000C94F4000C94F4007C
S11300300C94F4000C94F4000C94F4000C94F4006C
S11300400C94F4000C94F4000C94F4000C94F4005C
S11300500C94F4000C94F4000C94F4000C94F4004C
S11300600C94F4000C94F4000C94F4000C94F4003C
S11300700C94F4000C94F4000C94F4000C94F4002C
S11300800C94F4000C94F4000C94F4000C94F4001C
S11300900C94F4000C94F4000C94F4000C94F4000C
S11300A00C94F4000C94F4000C94F4006E616E0053
S11300B0696E660000407A10F35A00A0724E180967
S11300C00010A5D4E80000E87648170000E40B54BB
S11300D0020000CA9A3B000000E1F505000080968A
S11300E09800000040420F000000A08601000000BC
S11300F0102700000000E803000000006400000076
S113010000000A00000000000100000000002C763E
S1130110D888DC674F0823DFC1DFAE59E1B1B79659
S1130120E5E3E453C63AE651997696E8E6C28426B6
S1130130EB898C9B62ED407C6FFCEFBC9C9F40F292
S1130140BAA56FA5F490055A2AF75C936B6CF9670E
S11301506DC11BFCE0E40D47FEF520E6B500D0EDD3
S1130160902E0300943577050080841E080000203B
S11301704E0A000000C80C333333330F986E1283D9
S11301801141EF8D2114893BE65516CFFEE6DB18AD
S1130190D1844B381BF77C1D901DA4BBE424203272
S11301A084725E228100C9F124ECA1E53D2711246B
S11301B01FBECFEFDAE0DEBFCDBF11E0A0E0B1E0BB
S11301C0E6EDF9E102C005900D92A238B107D9F726
S11301D021E0A2E8B1E001C01D92AC38B207E1F71A
S11301E00E94F6000C94E90C0C940000CF93DF936A
S11301F0CDB7DEB76E970FB6F894DEBF0FBECDBF96
S11302000E946203539A3E98469A3F98479A2698CA
S11302102E9A0E94EC0282E0C82ED12C9CE0E92E9A
S113022091E0F92E8E010F5F1F4F80910001909194
S113023001010E94B9039093010180930001809110
S11302400001909101018F31910509F4FAC0C0F4C5
S11302508330910509F4A4C038F481309105D9F1B3
S1130260029709F453C0ABC18D30910509F470C1F4
S11302708531910509F4CAC00B9709F0A0C1ABC040
S11302808734910509F449C160F48333910509F475
S11302900EC18D33910509F425C1899709F08FC1E9
S11302A0EBC0823D910509F46EC1863321E09207CB
S11302B009F476C18E36910509F081C1409182011D
S11302C05091830160910001709101018091860138
S11302D09091870171C120910001309101018091B9
S11302E08201909183012817390751F081E00E941F
S11302F054038FE39FE10197F1F700C0000003C0AE
S113030082E00E94540382E091E047C00E943C04D2
S1130310BC0180E090E00E9492062DEC3CEC4CE4A1
S113032053E40E942A062DEC3CEC4CE45EE30E946C
S1130330C5052CE53AEA42ED5BE30E942A0620E972
S113034032EB41E25CE30E9420079F938F937F93FB
S11303506F93FF92EF921F930F930E94690C209169
S113036000013091010180918201909183010FB6C7
S1130370F894DEBF0FBECDBF2817390751F081E0D6
S11303800E9454038FE39FE10197F1F700C000003E
S113039003C082E00E945403C8010E949B0313C15E
S11303A0209100013091010180918201909183019B
S11303B02817390751F081E00E9454038FE39FE12D
S11303C00197F1F700C0000003C082E00E945403CB
S11303D088E191E0E2CF2091000130910101809108
S11303E08201909183012817390751F081E00E941E
S11303F054038FE39FE10197F1F700C0000003C0AD
S113040082E00E9454038DE191E0C7CF2091000166
S1130410309101018091820190918301281739075D
S113042051F081E00E9454038FE39FE10197F1F7BB
S113043000C0000003C082E00E9454038BE291E0FC
S1130440ACCF209100013091010180918201909103
S113045083012817390751F081E00E9454038FE388
S11304609FE10197F1F700C0000003C082E00E9401
S113047054038AE391E091CF20910001309101016E
S113048080918201909183012817390751F081E00E
S11304900E9454038FE39FE10197F1F700C000002D
S11304A003C082E00E94540388E491E076CF209157
S11304B000013091010180918201909183012817FC
S11304C0390751F081E00E9454038FE39FE10197C3
S11304D0F1F700C0000003C082E00E94540385E5E8
S11304E091E05BCF20910001309101018091820164
S11304F0909183012817390751F081E00E94540339
S11305008FE39FE10197F1F700C0000003C082E090
S11305100E9454038EE591E040CF20910001309178
S1130520010180918201909183012817390751F0CC
S113053081E00E9454038FE39FE10197F1F700C02B
S1130540000003C082E00E9454038CE691E025CFB2
S113055020910001309101018091820190918301E9
S11305602817390751F081E00E9454038FE39FE17B
S11305700197F1F700C0000003C082E00E94540319
S113058082E791E00ACF409182015091830160910A
S113059000017091010180918A0190918B010CC03E
S11305A04091820150918301609100017091010199
S11305B080918401909185010E94910404C0D0929D
S11305C00101C0920001809100019091010190937A
S11305D083018093820129CE81E480937C0087E8A3
S11305E080937A00EBE7F0E0808180628083089555
S11305F0982F907F84FF02C08C9A01C08C9885FF4D
S113060002C08D9A01C08D9886FF02C08E9A01C0E7
S11306108E9897FF02C08F9A01C08F98899A9AE0AA
S11306209A95F1F700C089988295982F907F84FF5E
S113063002C08C9A01C08C9885FF02C08D9A01C0BB
S11306408D9886FF02C08E9A01C08E9897FF02C0D3
S11306508F9A01C08F98899A8AE08A95F1F700C031
S11306608998089595ED9A95F1F700008898982F48
S1130670907F84FF02C08C9A01C08C9885FF02C0D1
S11306808D9A01C08D9886FF02C08E9A01C08E9803
S113069097FF02C08F9A01C08F98899A8AE08A9541
S11306A0F1F700C08998089595ED9A95F1F7000047
S11306B088980C94F80295ED9A95F1F70000889AC1
S11306C00C94F802849A859A869A879A809A819AD9
S11306D02FEF83EF91E0215080409040E1F700C07C
S11306E0000080E30E9432038FE39CE90197F1F755
S11306F000C0000080E30E9432038FE39FE1019772
S1130700F1F700C0000080E30E94320388E20E94F7
S1130710320388E20E9454038CE00E94540381E077
S11307200E9454038FE39FE10197F1F700C000009A
S113073086E00C945403FF920F931F93CF93DF939F
S1130740F82EEC018E018881882369F08C2F8F1993
S1130750883019F480EC0E9454032196F8018081BA
S11307600E945B03EFCFDF91CF911F910F91FF9018
S113077008959C01215031092330310588F4369BBA
S113078001961E9902C082E090E0379B0A962FEFF3
S113079034E34CE0215030404040E1F700C0000019
S11307A08430910511F481E090E09C012B503109D3
S11307B02835310590F5369914C08D30910541F0F6
S11307C02B5E3F4F2035310510F0CC9701C0C90195
S11307D05FEF24E33CE0515020403040E1F700C09B
S11307E000001E9902C082E090E0379916C08D3057
S11307F0910541F02AE0AC01249FC001259F900D92
S1130800112402C083E090E05FEF24E33CE0515008
S113081020403040E1F700C000009C012E56310911
S11308202A37334080F41E9905C06AE070E00E94C4
S1130830FE0ACB015FEF24E33CE0515020403040FE
S1130840E1F700C0000008956817790728F04817F9
S1130850590710F0CB0106C08617970740F04617DA
S1130860570728F04817590730F4CA010895681744
S1130870790708F4CB010895CF92DF92EF92FF92AB
S11308800F931F93CF93DF93CDB7DEB72C970FB69B
S1130890F894DEBF0FBECDBF8E010F5F1F4F7E01E8
S11308A087E0E80EF11C6E01EDE0CE0ED11CF701DD
S11308B080917A00806480937A0080917A0086FD2A
S11308C0FCCF809178002091790090E0922B819365
S11308D09193EC15FD0561F74B855C8569857A85F7
S11308E08F8198850E942404F801819391938F014C
S11308F0EE15FF05E1F64D815E816B817C81898176
S11309009A812C960FB6F894DEBF0FBECDBFDF914F
S1130910CF911F910F91FF90EF90DF90CF900C94A7
S113092024042F923F924F925F926F927F928F9204
S11309309F92AF92BF92CF92DF92EF92FF920F936A
S11309401F93CF93DF93CDB7DEB7EC970FB6F89430
S1130950DEBF0FBECDBF7C015B014A01BC0180E05C
S113096090E00E9492062DEC3CEC4CE453E40E948F
S11309702A062DEC3CEC4CE45EE30E94C5052CE514
S11309803AEA42ED5BE30E942A0620E932EB41E2B7
S11309905CE30E9420079F938F937F936F938FE074
S11309A091E09F938F93CE014F969F938F930E94D4
S11309B0690C81E00E9454038FE39FE10197F1F7F2
S11309C000C00000CE014F960E949B030FB6F8941E
S11309D0DEBF0FBECDBF8FE0C82E81E0D82E8E01C2
S11309E00F5F1F4F9EEB592E2DE9422E32E3332E1B
S11309F049E0242E5AE0652E712C369942C03FEF0F
S1130A00E31AF30AB70180E090E00E9492062DEC0D
S1130A103CEC4CE453E40E942A062DEC3CEC4CE400
S1130A205EE30E94C5052CE53AEA42ED5BE30E94D1
S1130A302A0620E932EB41E25CE30E9420079F93FF
S1130A408F937F936F93DF92CF921F930F930E94A4
S1130A50690C0FB6F894DEBF0FBECDBFA814B9045D
S1130A6051F081E00E9454038FE39FE10197F1F775
S1130A7000C0000003C082E00E945403C8010E9429
S1130A809B031E994AC0E114F10429F191E0E91A8B
S1130A90F108B70180E090E00E9492062DEC3CEC56
S1130AA04CE453E40E942A062DEC3CEC4CE45EE357
S1130AB00E94C5052CE53AEA42ED5BE30E942A0652
S1130AC020E932EB41E25CE30E9420079F938F937D
S1130AD07F936F9304C05F924F923F922F92DF9265
S1130AE0CF921F930F930E94690C0FB6F894DEBF48
S1130AF00FBECDBFA814B90451F081E00E94540385
S1130B008FE39FE10197F1F700C0000003C082E08A
S1130B100E945403C8010E949B03379910C09FEFA1
S1130B2024E33CE0915020403040E1F700C0000055
S1130B30C501B3010E94FE0A5B0181E001C080E0AF
S1130B409FEF26E131E1915020403040E1F700C0B1
S1130B500000882309F451CFEC960FB6F894DEBF59
S1130B600FBECDBFDF91CF911F910F91FF90EF90FA
S1130B70DF90CF90BF90AF909F908F907F906F90B9
S1130B805F904F903F902F9008955058BB27AA270D
S1130B900ED01CC10DD130F012D120F031F49F3FA2
S1130BA011F41EF402C10EF4E095E7FBF8C0E92F3E
S1130BB01ED180F3BA17620773078407950718F0EC
S1130BC071F49EF536C10EF4E0950B2EBA2FA02DCC
S1130BD00B01B90190010C01CA01A0011124FF27E6
S1130BE0591B99F0593F50F4503E68F11A16F040E1
S1130BF0A22F232F342F4427585FF3CF46953795E0
S1130C002795A795F0405395C9F77EF41F16BA0BA4
S1130C10620B730B840BBAF09150A1F0FF0FBB1F52
S1130C20661F771F881FC2F70EC0BA0F621F731F9B
S1130C30841F48F4879577956795B795F7959E3FF8
S1130C4008F0B3CF9395880F08F09927EE0F979586
S1130C50879508950CD0BAC0B2D040F0A9D030F036
S1130C6021F45F3F19F09BC05111E4C09EC0BFD076
S1130C7098F39923C9F35523B1F3951B550BBB275F
S1130C80AA2762177307840738F09F5F5F4F220F0C
S1130C90331F441FAA1FA9F333D00E2E3AF0E0E805
S1130CA030D091505040E695001CCAF729D0FE2F51
S1130CB027D0660F771F881FBB1F261737074807E3
S1130CC0AB07B0E809F0BB0B802DBF01FF27935899
S1130CD05F4F2AF09E3F510568F061C0ABC05F3F93
S1130CE0ECF3983EDCF3869577956795B795F79581
S1130CF09F5FC9F7880F911D9695879597F9089579
S1130D00E1E0660F771F881FBB1F62177307840714
S1130D10BA0720F0621B730B840BBA0BEE1F88F723
S1130D20E0950895E89409C097FB3EF4909580956A
S1130D30709561957F4F8F4F9F4F9923A9F0F92F9D
S1130D4096E9BB279395F695879577956795B7951B
S1130D50F111F8CFFAF4BB0F11F460FF1BC06F5F01
S1130D607F4F8F4F9F4F16C0882311F096E911C013
S1130D70772321F09EE8872F762F05C0662371F034
S1130D8096E8862F70E060E02AF09A95660F771F48
S1130D90881FDAF7880F9695879597F9089597F93C
S1130DA09F6780E870E060E008959FEF80EC08950D
S1130DB000240A9416161706180609060895002436
S1130DC00A9412161306140605060895092E0394B0
S1130DD0000C11F4882352F0BB0F40F4BF2B11F424
S1130DE060FF04C06F5F7F4F8F4F9F4F089557FD83
S1130DF09058440F551F59F05F3F71F04795880F85
S1130E0097FB991F61F09F3F79F08795089512161B
S1130E1013061406551FF2CF4695F1DF08C01616C7
S1130E2017061806991FF1CF869571056105089478
S1130E300895E894BB2766277727CB0197F908958F
S1130E400BD0C4CFB5DF28F0BADF18F0952309F032
S1130E50A6CFABCF1124EECFCADFA0F3959FD1F379
S1130E60950F50E0551F629FF001729FBB27F00D54
S1130E70B11D639FAA27F00DB11DAA1F649F6627A9
S1130E80B00DA11D661F829F2227B00DA11D621FF8
S1130E90739FB00DA11D621F839FA00D611D221FB2
S1130EA0749F3327A00D611D231F849F600D211D96
S1130EB0822F762F6A2F11249F5750408AF0E1F039
S1130EC088234AF0EE0FFF1FBB1F661F771F881F82
S1130ED091505040A9F79E3F510570F060CFAACFC2
S1130EE05F3FECF3983EDCF3869577956795B7956D
S1130EF0F795E7959F5FC1F7FE2B880F911D969597
S1130F00879597F90895A3E1B0E0E9E8F7E00C9438
S1130F10120B7C011B016A01FC011782168283817A
S1130F2081FF66C3BE016F5F7F4F4B01F701938161
S1130F30F10193FD859193FF81911F01882309F4A9
S1130F4053C3853239F493FD859193FF81911F0139
S1130F50853239F4B70190E00E94370C56016501DF
S1130F60E5CF10E0512C20E02032A0F48B3269F060
S1130F7030F4803259F0833269F420612CC08D3210
S1130F8039F0803339F4216026C02260246023C004
S1130F90286021C027FD27C030ED380F3A3078F49F
S1130FA026FF06C0FAE01F9F300D1124132F13C033
S1130FB06AE0569E300D1124532E20620CC08E32EE
S1130FC021F426FD11C3206406C08C3611F4206878
S1130FD002C0883641F4F10193FD859193FF81911C
S1130FE01F018111C1CF9BEB980F933018F420613E
S1130FF0805E06C09BE9980F933008F0AAC12F7E4B
S113100026FF16E02F73722E853621F4F22FF0643A
S11310107F2E08C0863621F4622F6068762E02C0C7
S11310201111115077FE07C01C3348F44424439433
S1131030410E27E00BC0183030F4212F06C027E002
S11310404CE3442E03C027E017E0412C560174E022
S1131050A70EB11CF6016081718182819381042DF8
S1131060A4010E94490B6C01098100FF02C003FF27
S113107006C071FC07C072FC08C0612C08C03DE2C8
S1131080632E05C02BE2622E02C090E2692E802FEF
S11310908C7099F1662011F084E001C083E085151D
S11310A010F0512C0BC0581A73FC08C0B70180E231
S11310B090E00E94370C5A94C9F7F3CF662029F0C8
S11310C0B701862D90E00E94370C03FD03C000EBAE
S11310D010E002C00CEA10E0F72DF0717F2EF80149
S11310E08491882309F476C271108052B70190E08C
S11310F00E94370C0F5F1F4FF2CF77FE0FC04C0CCE
S113110004FF04C08A81813309F44A94141474F5E9
S1131110F8E0F41578F588E0482E2CC076FC2AC057
S1131120812F90E08C159D059CF06CEFC6166FEF37
S1131130D60674F0772D7068772E0AC0E2E0F0E0EE
S1131140EC0FFD1FE10FF11D8081803319F4115064
S11311501111F4CF77FE0EC044244394410E812F25
S113116090E0C816D9062CF41C1904C044244394F6
S113117001C010E077FE07C01C141D043CF4960166
S11311802F5F3F4F05C025E030E002C021E030E092
S1131190662011F02F5F3F4F112331F0412F50E0B3
S11311A04F5F5F4F240F351F452D50E0241735073F
S11311B014F4521A01C0512C872D897049F455201A
S11311C039F0B70180E290E00E94370C5A94F7CFCF
S11311D0662029F0B701862D90E00E94370C73FC3D
S11311E009C0552039F0B70180E390E00E94370C24
S11311F05A94F7CF77FE5FC09C2D8D2DD7FE02C089
S113120090E080E0692E782E40E050E0C601841919
S113121091099D878C87960126193709280D391D58
S1131220812F90E0EE27FF27E81BF90BFF87EE875D
S1131230FFEF6F167F0669F4B7018EE290E02B8B07
S11312403A8B488B598B0E94370C598948893A89C3
S11312502B89C614D70454F06C857D8566157705F3
S11312602CF4F901E40FF51F818101C080E371E0E2
S1131270671A71084F5F5F4FEE85FF856E167F0614
S11312806CF0B70190E02B8B3A8B488B598B0E9402
S1131290370C2B893A8948895989CACF6C147D0443
S11312A039F49A81963318F4953311F404FF81E3E9
S11312B0B70190E04BC08A81813309F00F7EB701FA
S11312C090E00E94370C111105C074FE18C085E42B
S11312D090E017C0B7018EE290E00E94370C82E0E4
S11312E066246394680EF401E80FF11D8081B70150
S11312F090E00E94370C115041F3862DF1CF85E622
S113130090E0B7010E94370CD7FC05C0C114D1048A
S113131039F404FF05C0D194C194D1088DE201C011
S11313208BE2B70190E00E94370C80E36AE0C616B6
S1131330D1042CF08F5FFAE0CF1AD108F7CFB701B0
S113134090E00E94370CB701C601C0960E94370C8A
S113135041C1833631F0833779F0833509F058C0C1
S113136021C0560172E0A70EB11CF6018081898369
S113137001E010E0640114C05601F2E0AF0EB11CAC
S1131380F601C080D18026FF03C0612F70E002C047
S11313906FEF7FEFC6012B8B0E942C0C8C012B89E5
S11313A02F7715C05601F2E0AF0EB11CF601C080D4
S11313B0D18026FF03C0612F70E002C06FEF7FEF82
S11313C0C6012B8B0E94210C8C012B892068722E64
S11313D023FD1AC0852D90E008171907A8F4B7015A
S11313E080E290E00E94370C5A94F4CFF60177FC27
S11313F0859177FE81916F01B70190E00E94370CCF
S113140051105A94015011090115110579F7E2C0E0
S1131410843611F0893651F5560127FF09C0F4E0EE
S1131420AF0EB11CF60160817181828193810AC083
S1131430F2E0AF0EB11CF60160817181882777FD5F
S11314408095982F022F0F7697FF08C0909580956E
S1131450709561957F4F8F4F9F4F00682AE030E071
S1131460A4010E948B0CC82EC8183EC0022F8537D9
S113147021F40F7E2AE030E01DC0097F8F3691F001
S113148018F4883559F0B0C0803719F0883711F056
S1131490ABC0006104FF09C0046007C024FF08C09A
S11314A0066006C028E030E005C020E130E002C05C
S11314B020E132E0560107FF09C0F4E0AF0EB11C91
S11314C0F601608171818281938108C0F2E0AF0EE0
S11314D0B11CF6016081718180E090E0A4010E945A
S11314E08B0CC82EC8180F7706FF0BC0202F2E7F39
S11314F0C11650F404FF0AC002FD08C0202F2E7E3E
S113150005C0DC2C202F03C0DC2C01C0D12E24FF0D
S11315100DC0FE01EC0DF11D8081803311F4297E94
S113152009C022FF06C0D394D39404C0822F8678C6
S113153009F0D39423FD13C020FF06C01C2DD5143D
S113154018F4150D1D19D52CD51468F4B70180E2D3
S113155090E02B8B0E94370CD3942B89F5CFD514B4
S113156010F45D1801C0512C24FF12C0B70180E3B0
S113157090E02B8B0E94370C2B8922FF17C021FF90
S113158003C088E590E002C088E790E0B7010CC092
S1131590822F867859F021FD02C080E201C08BE2DF
S11315A027FD8DE2B70190E00E94370CC11638F494
S11315B0B70180E390E00E94370C1150F7CFCA9432
S11315C0F401EC0DF11D8081B70190E00E94370C0D
S11315D0C110F5CF552009F4C2CCB70180E290E0E8
S11315E00E94370C5A94F6CFF7018681978102C086
S11315F08FEF9FEF6396E2E10C942E0BAA1BBB1BAB
S113160051E107C0AA1FBB1FA617B70710F0A61BFE
S1131610B70B881F991F5A95A9F780959095BC011F
S1131620CD0108952F923F924F925F926F927F92D5
S11316308F929F92AF92BF92CF92DF92EF92FF92DE
S11316400F931F93CF93DF93CDB7DEB7CA1BDB0B8A
S11316500FB6F894DEBF0FBECDBF09942A8839882F
S113166048885F846E847D848C849B84AA84B98436
S1131670C884DF80EE80FD800C811B81AA81B98142
S1131680CE0FD11D0FB6F894DEBF0FBECDBFED0156
S11316900895283008F027E03327DA01990F311D27
S11316A087FD916000966105710539F432602E5F03
S11316B03D9330E32A95E1F708959F3F30F0803859
S11316C07105610509F03C5F3C5F3D93913008F082
S11316D08068911DDF93CF931F930F93FF92EF9236
S11316E0192F987F9695E92F96959695E90FFF27E0
S11316F0E25FFE4F99273327EE24FF24A701E70179
S113170005900894079428F4360FE71EF81E491F25
S1131710511D660F771F881F991F0694A1F7059026
S1131720079428F4E70EF81E491F561FC11D770FB2
S1131730881F991F661F0694A1F70590079428F443
S1131740F80E491F561FC71FD11D880F991F661F0A
S1131750771F0694A1F70590079420F4490F561FAC
S1131760C71FD81F990F661F771F881F0694A9F7F4
S113177084911095177041F0D695C7955795479564
S1131780F794E7941A95C1F7E4EBF0E068941590A8
S1131790159135916591959105907FE27395E118C6
S11317A0F10A430B560BC90BD009C0F7E10CF11E2B
S11317B0431F561FC91FD01D7EF4703311F48A9540
S11317C0E6CFE894015030F0080F0AF4002702171E
S11317D008F4202F2395022F7A3328F079E37D93A0
S11317E02A95E9F710C07D932A9589F60694979572
S11317F06795379517951794E118F10A430B560B23
S1131800C90BD00998F023957E9173957A3308F02B
S113181070E37C932013B8F77E9170617D9330F070
S1131820839571E37D9370E32A95E1F71124EF909A
S1131830FF900F911F91CF91DF91992787FD90958C
S11318400895FC010590615070400110D8F780950F
S113185090958E0F9F1F0895FC0161507040019078
S11318600110D8F7809590958E0F9F1F08950F93C0
S11318701F93CF93DF93182F092FEB018B8181FDE9
S113188003C08FEF9FEF20C082FF10C04E815F81A5
S11318902C813D81421753077CF4E881F9819F0133
S11318A02F5F3F4F39832883108306C0E885F9856D
S11318B0812F0995892B29F72E813F812F5F3F4F77
S11318C03F832E83812F902FDF91CF911F910F9112
S11318D00895AEE0B0E0EFE6FCE00C94200B0D8937
S11318E01E8986E08C831A8309838FEF9FE79E838A
S11318F08D83AE01475E5F4F6F89788DCE0101966F
S11319000E948307EF81F885E00FF11F10822E9665
S1131910E4E00C943C0BFA01AA27283051F1203161
S113192081F1E8946F936E7F6E5F7F4F8F4F9F4F6F
S1131930AF4FB1E03ED0B4E03CD0670F781F891FB1
S11319409A1FA11D680F791F8A1F911DA11D6A0F7F
S1131950711D811D911DA11D20D009F468943F9132
S11319602AE0269F11243019305D3193DEF6CF0131
S11319700895462F4770405D4193B3E00FD0C9F7F7
S1131980F6CF462F4F70405D4A3318F0495D31FD64
S11319904052419302D0A9F7EACFB4E0A6959795B7
S11319A0879577956795BA95C9F70097610571058D
S11319B008959B01AC010A2E0694579547953795D7
S11319C02795BA95C9F7620F731F841F951FA01D31
S10919D00895F894FFCF16
S11319D60200486163BF706FB9BAB800503A202557
S11319E62E32662061BFBC00546563BF0050204D93
S11319F6617820537461746963730050204D617873
S1131A062044796E616D6963730050204D696E20C0
S1131A1653746174696373005420BD61BE6FBBBDAA
S1131A2665BDB8C7005420BD61636F63610054206F
S1131A36B8BDBF65B47061BF6F706100542041E1E9
S1131A46A800A8657065E361C06120E361BDBDC3FC
S1051A56780012
S9030000FC
