:100000001CC1000037C1000035C1000033C1000031
:1000100031C100002FC100002DC100002BC1000024
:1000200029C1000027C1000071C600003CC70000C4
:1000300021C100001FC100001DC100001BC1000044
:1000400019C1000017C1000015C1000013C1000054
:1000500011C100000FC100000DC100000BC1000064
:1000600009C1000007C1000005C1000003C1000074
:1000700001C10000FFC00000FDC00000FBC0000087
:10008000F9C00000F7C00000F5C00000F3C0000098
:10009000F1C00000EFC00000EDC00000EBC00000A8
:1000A000E9C00000E7C00000E5C000001C034C00F0
:1000B000550046004100200043004400430020005A
:1000C000440065006D006F000000180344006500E7
:1000D00061006E002000430061006D006500720049
:1000E000610000000403090409023E00020100C08F
:1000F000320904000001020201000524001001047D
:100100002402060524060001070582030800FF09F2
:10011000040100020A0000000705040210000507A0
:100120000583021000051201100102000008EB0314
:10013000442001000102DC016E616E00696E660000
:1001400000407A10F35A00A0724E18090010A5D48E
:10015000E80000E87648170000E40B54020000CAEB
:100160009A3B000000E1F505000080969800000031
:1001700040420F000000A086010000001027000090
:100180000000E803000000006400000000000A0016
:10019000000000000100000000002C76D888DC6719
:1001A0004F0823DFC1DFAE59E1B1B796E5E3E45371
:1001B000C63AE651997696E8E6C28426EB898C9B8E
:1001C00062ED407C6FFCEFBC9C9F40F2BAA56FA52E
:1001D000F490055A2AF75C936B6CF9676DC11BFCB0
:1001E000E0E40D47FEF520E6B500D0ED902E0300CB
:1001F000943577050080841E080000204E0A000018
:1002000000C80C333333330F986E12831141EF8DD6
:100210002114893BE65516CFFEE6DB18D1844B3816
:100220001BF77C1D901DA4BBE424203284725E2247
:100230008100C9F124ECA1E53D2711241FBECFEFB9
:10024000DAE0DEBFCDBF11E0A0E0B1E0E0EDFCE21E
:1002500002C005900D92A03DB107D9F721E0A0EDB5
:10026000B1E001C01D92A73FB207E1F70E940D0E59
:100270000C946616C5CE81E480937C0087E8809359
:100280007A00EBE7F0E08081806280830895292F77
:1002900033272230310559F02330310569F0213000
:1002A0003105F9F482E190E026E231E01EC08EE3F0
:1002B00090E028EE30E019C099278130910541F097
:1002C0008230910541F0892B61F4E4EEF0E005C045
:1002D000EAECF0E002C0ECEAF0E0849190E09F01EB
:1002E00004C080E090E020E030E0FA013183208318
:1002F0000895982F907F84FF02C08C9A01C08C983B
:1003000085FF02C08D9A01C08D9886FF02C08E9A2B
:1003100001C08E9897FF02C08F9A01C08F98899A6A
:100320009AE09A95F1F700C089988295982F907F6E
:1003300084FF02C08C9A01C08C9885FF02C08D9A00
:1003400001C08D9886FF02C08E9A01C08E9897FFDB
:1003500002C08F9A01C08F98899A8AE08A95F1F736
:1003600000C08998089595ED9A95F1F70000889856
:10037000982F907F84FF02C08C9A01C08C9885FFD3
:1003800002C08D9A01C08D9886FF02C08E9A01C06E
:100390008E9897FF02C08F9A01C08F98899A8AE041
:1003A0008A95F1F700C08998089595ED9A95F1F72F
:1003B000000088989ECF95ED9A95F1F70000889AF5
:1003C00098CF849A859A869A879A809A819A2FEFF5
:1003D00083EF91E0215080409040E1F700C00000A1
:1003E00080E3C1DF8FE39CE90197F1F700C00000D3
:1003F00080E3B9DF8FE39FE10197F1F700C00000D0
:1004000080E3B1DF88E2AFDF88E2CFDF8CE0CDDFD1
:1004100081E0CBDF8FE39FE10197F1F700C000009F
:1004200086E0C3CFFF920F931F93CF93DF93F82EF5
:10043000EC018E018881882359F08C2F8F19883028
:1004400011F480ECB2DF2196F8018081B4DFF1CFA6
:10045000DF91CF911F910F91FF9008956817790751
:1004600028F04817590710F0CB0106C086179707E8
:1004700040F04617570728F04817590730F4CA01CB
:1004800008956817790708F4CB010895CF92DF9299
:10049000EF92FF920F931F93CF93DF93CDB7DEB709
:1004A0002C970FB6F894DEBF0FBECDBF8E010F5F45
:1004B0001F4F7E0187E0E80EF11C6E01EDE0CE0ECD
:1004C000D11CF70180917A00806480937A0080913A
:1004D0007A0086FDFCCF809178002091790090E031
:1004E000922B81939193EC15FD0561F74B855C850B
:1004F00069857A858F819885B1DFF8018193919321
:100500008F01EE15FF05E9F64D815E816B817C81DF
:1005100089819A812C960FB6F894DEBF0FBECDBFAD
:10052000DF91CF911F910F91FF90EF90DF90CF90CF
:1005300095CFCF93DF93EC01FC0170968BE0DF0148
:100540001D928A95E9F782E08C83898783E08E8704
:1005500061E0CE010196EFD2882361F061E0CE0127
:100560000696E9D2882331F061E0CE010B96DF9147
:10057000CF91E1C280E0DF91CF910895DB0120911E
:10058000EE012430D1F4FC014489558966897789CC
:10059000452B462B472B89F081818F708093E90092
:1005A000FD0101900020E9F7BF01615071096A1B4C
:1005B0007B0B40E050E0CD017FC182E00895CF93F6
:1005C000C62F2091EE012430F1F4FC0144895589B5
:1005D00066897789452B462B472BA9F081818F703F
:1005E0008093E9008091E80085FF04C0C093F1008A
:1005F00080E00AC08091E8008E778093E800F9D20D
:100600008823A1F301C082E0CF910895FB01682FF8
:1006100084859585D4DF21E030E0811102C020E09F
:1006200030E088279927821B930B08952091EE01D3
:10063000243041F5FC014489558966897789452B29
:10064000462B472BF9F081818F708093E900209130
:10065000F3008091F20090E0922B892B89F0909129
:10066000E8008091E8008E778093E80095FD08C04F
:10067000C0D2811108C08091E8008E778093E80095
:1006800080E0089582E008952091EE01243089F4FD
:10069000FC014489558966897789452B462B472B70
:1006A00041F021812F702093E9002091E80020FD86
:1006B000BDCF08952091EE01243019F08FEF9FEF08
:1006C0000895FC014489558966897789452B462B15
:1006D000472BA1F386818F708093E9008091E80019
:1006E00082FFECCF2091F3008091F20090E0922BFA
:1006F000892B21F02091F10030E002C02FEF3FEF75
:100700004091F3008091F20090E0942B892B29F422
:100710008091E8008B778093E800C9010895FC017F
:1007200084859585C7DF97FF02C08EEF9FEF089500
:10073000FB012EE0DB011D922A95E9F723E02383DC
:1007400026E033E0318720872FE833E033872287A4
:100750009587848708950895CF93DF93EC01809166
:10076000E80083FFA6C0888190E02091F3013091DA
:10077000F4012817390709F09CC08091F0018132FB
:1007800061F020F4803209F43EC093C0823209F453
:100790006CC0833209F47DC08CC08091EF01813A36
:1007A00009F087C08091E800877F8093E8008091FE
:1007B000E80080FFFCCF4C895D896E897F8940937A
:1007C000F100BB27A72F962F852F8093F100CB0137
:1007D000AA27BB278093F100472F55276627772745
:1007E0004093F100888D8093F100898D8093F10012
:1007F0008A8D8093F1008091E8008E778093E800E5
:10080000DF91CF91D5C18091EF01813209F051C0C4
:100810008091E800877F8093E8008091E80082FD66
:1008200005C08091EE018111F8CF43C03091F100F5
:100830002091F1009091F1008091F1003C8B2D8B83
:100840009E8B8F8B8091F100888F8091F100898F32
:100850008091F1008A8F8091E8008B778093E80087
:10086000A7D1CE01DF91CF9176CF8091EF01813278
:1008700001F58091E800877F8093E80099D180910D
:10088000F1019091F201998B888BCE01DF91CF918C
:1008900062CF8091EF01813261F48091E800877F1F
:1008A0008093E80085D16091F101CE01DF91CF9175
:1008B00052CFDF91CF910895CF92DF92EF92FF92C6
:1008C0000F931F93CF93DF937C018B01EA0191D1AA
:1008D000811130C0209731F088819981081B190B54
:1008E000E80EF91EC12CD12C0115110511F18091D2
:1008F000E80085FD13C08091E8008E778093E800C2
:10090000209741F0888199818C0D9D1D9983888362
:1009100085E010C06ED1882339F30CC0F7018191B6
:100920007F018093F10001501109FFEFCF1ADF0A18
:10093000DBCF80E0DF91CF911F910F91FF90EF907F
:10094000DF90CF9008952091F5013091F6012617A0
:10095000370748F06115710539F42091E8002E77CA
:100960002093E80001C0B901FC0120E06115710588
:10097000B9F18091EE01882309F440C0853009F473
:100980003FC08091E80083FD3DC08091E80082FF78
:1009900006C08091E80082FF26C080E00895809123
:1009A000E80080FFE3CF2091F3008091F20090E017
:1009B000922B6115710551F08830910538F4219121
:1009C0002093F100615071090196F3CF21E008975F
:1009D00009F020E08091E8008E778093E800C6CF90
:1009E0002111C7CFD6CF8091EE01882339F0853011
:1009F00039F08091E80083FFCCCF04C082E00895F5
:100A000083E0089581E008952091F5013091F60189
:100A10002617370748F06115710539F42091E80071
:100A20002E772093E80001C0B901FC0120E0611598
:100A30007105C1F18091EE01882309F441C0853030
:100A400009F440C08091E80083FD3EC08091E80039
:100A500082FF06C08091E80082FF27C080E00895F1
:100A60008091E80080FFE3CF2091F3008091F200B5
:100A700090E0922B6115710559F08830910540F492
:100A800024912093F1003196615071090196F2CFC3
:100A900021E0089709F020E08091E8008E778093AC
:100AA000E800C5CF2111C6CFD5CF8091EE018823B4
:100AB00039F0853039F08091E80083FFCBCF04C056
:100AC00082E0089583E0089581E00895982F97309B
:100AD00058F59093E900981739F07091EC00209147
:100AE000ED005091F00003C0242F762F50E021FF3D
:100AF00019C03091EB003E7F3093EB003091ED0058
:100B00003D7F3093ED003091EB0031603093EB008E
:100B10007093EC002093ED005093F0002091EE00D4
:100B200027FF07C09F5FD3CF8F708093E90081E0DC
:100B3000089580E008950F931F93CF93DF93062FBE
:100B4000EC0110E0101771F19881992341F12C818B
:100B5000E981FA817B81892F8F70873010F080E0E6
:100B600022C0223010F056E001C052E028E030E010
:100B700040E02E173F0720F44F5F220F331FF9CFBD
:100B80004295407F452B692F661F6627661F90E4BC
:100B9000799F90011124622B99DF882301F31F5F55
:100BA0002596D0CF81E0DF91CF911F910F910895CD
:100BB0008091EF0187FD05C08091E80080FF0EC0A5
:100BC00012C08091E80082FD05C08091EE01811184
:100BD000F8CF08958091E8008B7708C08091EE01EE
:100BE0008111EACF08958091E8008E778093E80024
:100BF00008958091E4009091E50045E62091EC0095
:100C000020FF21C02091E80020FD21C02091EE01AD
:100C1000222389F0253089F02091EB0025FD0FC0BB
:100C20002091E4003091E5002817390739F341504D
:100C300041F0C901E3CF82E0089583E0089581E0A7
:100C4000089584E008952091E80022FFDFCF80E03E
:100C500008950F931F93CF93DF934BD052D0C8EDDD
:100C6000D0E088818F7788838881806888838881B5
:100C70008F7D888319BC1092EE011092EA011092C8
:100C8000EC011092EB0100EE10E0F80180818B7F07
:100C9000808388818160888342E060E080E016DFA5
:100CA000E1EEF0E080818E7F8083E2EEF0E08081F3
:100CB00081608083808188608083F80180818E7F5D
:100CC0008083888180618883DF91CF911F910F910C
:100CD0000895E8EDF0E080818F7E8083E7EDF0E01D
:100CE00080818160808384E082BF81E08093ED0118
:100CF000B0CFE8EDF0E080818E7F80831092E2003B
:100D000008951092DA001092E10008951F920F9258
:100D10000FB60F9211242F933F934F935F936F93CE
:100D20007F938F939F93AF93BF93EF93FF938091A4
:100D3000E10082FF0AC08091E20082FF06C080913C
:100D4000E1008B7F8093E1003AD28091DA0080FF4E
:100D50001FC08091D80080FF1BC08091DA008E7F79
:100D60008093DA008091D90080FF0DC080E189BDB9
:100D700082E189BD09B400FEFDCF81E08093EE01E0
:100D80000E94010F05C019BC1092EE010E94180FBD
:100D90008091E10080FF18C08091E20080FF14C0C4
:100DA0008091E2008E7F8093E2008091E20080617A
:100DB0008093E2008091D80080628093D80019BCB3
:100DC00085E08093EE01FBD18091E10084FF2FC08C
:100DD0008091E20084FF2BC080E189BD82E189BD62
:100DE00009B400FEFDCF8091D8008F7D8093D8009C
:100DF0008091E1008F7E8093E1008091E2008F7E00
:100E00008093E2008091E20081608093E200809113
:100E1000EA01882311F084E007C08091E30087FF96
:100E200002C083E001C081E08093EE01C8D18091CF
:100E3000E10083FF27C08091E20083FF23C08091FF
:100E4000E100877F8093E10082E08093EE011092C1
:100E5000EA018091E1008E7F8093E1008091E200C1
:100E60008E7F8093E2008091E20080618093E200B7
:100E700042E060E080E02ADE8091F00088608093AC
:100E8000F0009DD1FF91EF91BF91AF919F918F9114
:100E90007F916F915F914F913F912F910F900FBE76
:100EA0000F901F9018951F920F920FB60F9211245A
:100EB0002F933F934F935F936F937F938F939F9362
:100EC000AF93BF93CF93EF93FF93C091E900CF709F
:100ED0008091EC001092E9008091F000877F809370
:100EE000F00078941BD01092E9008091F0008860A7
:100EF0008093F000C093E900FF91EF91CF91BF91F3
:100F0000AF919F918F917F916F915F914F913F91A1
:100F10002F910F900FBE0F901F9018951F93CF9396
:100F2000DF93CDB7DEB7AA970FB6F894DEBF0FBE3A
:100F3000CDBFEFEEF1E08091F100819321E0E73F3A
:100F4000F207C9F790D78091E80083FF20C1909104
:100F5000EF018091F001853009F477C030F48130E1
:100F600081F168F0833069F112C1883009F4E1C081
:100F7000893009F4F0C0863009F009C188C0903882
:100F800081F0923809F003C18091F3018F70809352
:100F9000E9008091EB0085FB882780F91092E90039
:100FA00006C08091EB019091EC01911182609091CB
:100FB000E800977F9093E8008093F1001092F10091
:100FC000C3C0292F2D7F09F0E2C0992319F0923078
:100FD00061F0DDC09091F101913009F0D8C083300B
:100FE00009F090E09093EC012AC09091F1019111E9
:100FF00026C02091F3012F7009F4C9C02093E900A5
:101000009091EB0090FF1BC0833021F48091EB00A6
:10101000806213C08091EB0080618093EB0081E0DF
:1010200090E0022E01C0880F0A94EAF78093EA004C
:101030001092EA008091EB0088608093EB001092A0
:10104000E9008091E800877F82C09111A0C01091D3
:10105000F1011F778091E3008078812B8093E3007A
:101060008091E800877F8093E800A2DD8091E8000E
:1010700080FFFCCF8091E30080688093E300112320
:1010800011F083E001C082E08093EE0180C09058AF
:10109000923008F07CC08091F1019091F2018C3D7A
:1010A00023E0920771F583E08A838AE289834FB750
:1010B000F894DE01139620E03EE051E2E32FF0E0E9
:1010C00050935700E49120FF03C0E295EF703F5F1B
:1010D000EF708E2F90E0EA3010F0C79601C0C096F6
:1010E0008D939D932F5F243149F74FBF8091E80086
:1010F000877F8093E8006AE270E0CE01019623DCEE
:1011000012C0AE014F5F5F4F6091F301C0D80097EE
:1011100009F43DC02091E800277F2093E800BC013E
:1011200089819A8171DC8091E8008B778093E80057
:101130002EC0903861F58091E800877F8093E800A9
:101140008091EA018093F1008091E8008E7780938E
:10115000E8002EDD1CC091111AC09091F10192306F
:10116000B0F48091E800877F8093E8009093EA01D3
:101170001FDD8091EA01811104C08091E30087FFA7
:1011800002C084E001C081E08093EE0168D68091C6
:10119000E80083FF0AC08091E800877F8093E80021
:1011A0008091EB0080628093EB00AA960FB6F894D2
:1011B000DEBF0FBECDBFDF91CF911F91089508957F
:1011C000CF938091EE018823A9F08091E9008F7080
:1011D0009091EC0090FF02C090E801C090E0C92F10
:1011E000C82B1092E9008091E80083FD97DECF7054
:1011F000C093E900CF9108952F923F924F925F9252
:101200006F927F928F929F92AF92BF92CF92DF9216
:10121000EF92FF920F931F93CF93DF93CDB7DEB77B
:10122000A6970FB6F894DEBF0FBECDBF82E090E068
:101230000E942D169093D9018093D80184E090E00C
:101240000E942D169093D7018093D60180E090E004
:101250000E942D169093D5018093D401412C512CDE
:10126000312C28E2622E21E0722E8E010F5F1F4F7B
:1012700038E3C32E31E0D32E49E2E42EF12C5CE5B5
:10128000A52E51E0B52E942C98E0892E9110B4C172
:101290008091D6019091D701892B29F4F092040115
:1012A000E092030146C08091D6019091D7019093BE
:1012B0000401809303013DC060910301709104011A
:1012C00080E090E0A1D62DEC3CEC4CE453E434D625
:1012D0002DEC3CEC4CE45EE3CAD52CE53AEA42ED59
:1012E0005BE32AD620E932EB41E25CE31BD79F9314
:1012F0008F937F936F937F926F921F930F930E94B0
:10130000A81580E852D8C8018DD80FB6F894DEBF72
:101310000FBECDBF379B11C0369B40C01E9B53C034
:101320009FEF27EE83E0915020408040E1F700C01E
:101330000000552009F4C0CF9CC09FEF2AE683E04F
:10134000915020408040E1F700C000003799E4CF81
:10135000609103017091040184E090E00E944416C2
:1013600084E090E00E942D169093D7018093D601DF
:101370008091D8019091D901892B29F4F092040130
:10138000E092030108C08091D8019091D901909317
:1013900004018093030155245394BECF9FEF2AE6A6
:1013A00083E0915020408040E1F700C00000369972
:1013B000B5CF8091030190910401019690930401AF
:1013C00080930301ABCF9FEF2AE683E0915020404A
:1013D0008040E1F700C000001E99A2CF8091030178
:1013E000909104018A9750F080910301909104013B
:1013F0000197909304018093030192CFF09204012E
:10140000E09203018DCF609103017091040180E0AF
:1014100090E0FAD52DEC3CEC4CE453E48DD52DEC6A
:101420003CEC4CE45EE323D52CE53AEA42ED5BE389
:1014300083D520E932EB41E25CE374D69F938F932E
:101440007F936F93DF92CF921F930F930E94A81503
:1014500080E80E94D501C8010E9412020FB6F894DC
:10146000DEBF0FBECDBF379B07C0369B8BC01E9B18
:101470009EC0332041F2BBC09FEF2AE683E091502B
:1014800020408040E1F700C000003799EECF809106
:101490000301909104019093D9018093D801209188
:1014A000D6013091D7018091D8019091D90182174E
:1014B0009307C8F581E00E94D5018FE39FE1019772
:1014C000F1F700C00000E0E2F1E0DE015F96882D58
:1014D00001900D928A95E1F7CE014F960E9412027B
:1014E0009FEF2DE389E4915020408040E1F700C058
:1014F000000082E00E94D50188E491E00E9412027F
:101500009FEF2DE389E4915020408040E1F700C037
:10151000000081E00E94D5018FE39FE10197F1F780
:1015200000C00000A2CF609103017091040182E02D
:1015300090E00E94441682E090E00E942D16909365
:10154000D9018093D801109204011092030181E027
:101550000E94D5018FE39FE10197F1F700C00000E1
:1015600086E591E00E9412029FEF23ED80E3915007
:1015700020408040E1F700C0000099249394332478
:10158000339473CF9FEF2AE683E091502040804050
:10159000E1F700C0000036996ACF80910301909175
:1015A00004010196909304018093030160CF9FEFA3
:1015B0002AE683E0915020408040E1F700C000001F
:1015C0001E9957CF80910301909104018A9750F0A2
:1015D00080910301909104010197909304018093FD
:1015E000030147CFF0920401E092030142CF33247C
:1015F0003394552453944ACE2224239488248394EC
:10160000912C411084C08091D4019091D5019F9379
:101610008F93BF92AF921F930F930E94A81580E8FB
:101620000E94D501C8010E9412020F900F900F90E6
:101630000F900F900F90379932C09FEF2AE683E00A
:10164000915020408040E1F700C00000379927C04A
:101650006091D4017091D50180E090E00E94441621
:1016600080E090E00E942D169093D5018093D401E4
:1016700061E086E090E00E94481686E090E00E94DB
:1016800025168093DB0181E00E94D5018FE39FE165
:101690000197F1F700C0000044244394212C3699AF
:1016A00014C09FEF2AE683E0915020408040E1F78C
:1016B00000C00000369909C08091D4019091D501F5
:1016C00001969093D5018093D4011E999ACF9FEFF4
:1016D0002AE683E0915020408040E1F700C00000FE
:1016E0001E998FCF8091D4019091D501029750F02F
:1016F0008091D4019091D50101979093D501809369
:10170000D4017FCF9092D5018092D4017ACF22204C
:1017100019F044244394B7CDA6960FB6F894DEBFD3
:101720000FBECDBFDF91CF911F910F91FF90EF9032
:10173000DF90CF90BF90AF909F908F907F906F90F1
:101740005F904F903F902F9008950F931F93CF93EA
:10175000DF93CDB7DEB76E970FB6F894DEBF0FBE3E
:10176000CDBF8091D20190910001981721F0809314
:1017700000018093D101369915C02FEF3AE643E07E
:10178000215030404040E1F700C0000036990AC0C7
:101790008091D101823020F48F5F8093D10102C00B
:1017A0001092D101379919C08FEF9AE623E081504A
:1017B00090402040E1F700C0000037990EC08091B2
:1017C000D101813041F0823041F48093D20181E037
:1017D0008093010102C08093D2018091D101909148
:1017E000D001981759F08093D00181E00E94D50173
:1017F0008FE39FE10197F1F700C000008091D101D4
:10180000813009F446C048F0823009F049C080E8D0
:101810000E94D50185E791E041C00E944602909365
:10182000040180930301609103017091040180E041
:1018300090E0EAD32DEC3CEC4CE453E47DD32DEC6A
:101840003CEC4CE45EE313D32CE53AEA42ED5BE377
:1018500073D320E932EB41E25CE364D49F938F932E
:101860007F936F9388E291E09F938F938E010F5F38
:101870001F4F1F930F930E94A81580E80E94D50167
:10188000C8010E9412020FB6F894DEBF0FBECDBF92
:1018900007C080E80E94D5018BE691E00E94120209
:1018A00020910301309104018091D6019091D701DC
:1018B00082179307D8F05B9A809102018823B1F0D8
:1018C00080E090E02091D4013091D50182179307F8
:1018D00058F43FEF43ED20E3315040402040E1F722
:1018E00000C000000196EECF10920201209103018A
:1018F000309104018091D8019091D90128173907BE
:1019000020F05B9881E0809302016E960FB6F89408
:10191000DEBF0FBECDBFDF91CF911F910F91089514
:101920006BDC1092D2010895CF92DF92EF92FF927A
:101930000F931F93CF93DF93CDB7DEB7EC970FB61E
:10194000F894DEBF0FBECDBF80910101882309F45A
:101950005BC080E80E94D5018AE791E00E941202F4
:101960008091D8019091D9019F938F9388E891E05D
:101970009F938F938E010F5F1F4F1F930F930E94B2
:10198000A815B80185E091E00E94BE028091D601C1
:101990009091D7019F938F9383E991E09F938F93C9
:1019A0001F930F930E94A815B80185E091E00E9453
:1019B000BE028091D4019091D5019F938F938EE9BF
:1019C00091E09F938F931F930F930E94A815B801E6
:1019D00085E091E00E94BE028091D3011F928F9317
:1019E00089EA91E09F938F931F930F930E94A8150C
:1019F000B80185E091E00E94BE02109201010FB68D
:101A0000F894DEBF0FBECDBF8BB188709091D3012B
:101A10009817E1F08BB188708093D3011F928F9358
:101A200089EA91E09F938F938E010F5F1F4F1F9361
:101A30000F930E94A815B80185E091E00E94BE02B4
:101A40000F900F900F900F900F900F900E944602F2
:101A50009F938F9384EA91E09F938F938E01015E11
:101A60001F4F1F930F930E94A815B80185E091E0C6
:101A70000E94BE020E9446029093040180930301DB
:101A800020910301309104018091D6019091D701FA
:101A90000F900F900F900F900F900F908217930759
:101AA00008F44CC05B9A80910201882309F446C077
:101AB000E12CF12CF4EACF2EF1E0DF2E0E511109CA
:101AC0008091D4019091D501A70160E070E0A0E081
:101AD000B0E0E3E0880F991FAA1FBB1FEA95D1F77A
:101AE000481759076A077B0738F50E9446029F93FB
:101AF0008F93DF92CF921F930F930E94A815B80186
:101B000085E091E00E94BE0285E091E00E944403DE
:101B100057DB9FE72AE186E0915020408040E1F7C3
:101B200000C000009FEFE91AF90A0F900F900F9084
:101B30000F900F900F90C4CF1092020120910301DB
:101B4000309104018091D8019091D901281739076B
:101B500020F05B9881E0809302012FE78AE196E014
:101B6000215080409040E1F700C000001E9916C04F
:101B70002FEF8AE693E0215080409040E1F700C0CB
:101B800000001E990BC01092D20181E00E94D50185
:101B90008FE39FE10197F1F700C0000085E091E03D
:101BA0000E9444030DDBEC960FB6F894DEBF0FBE27
:101BB000CDBFDF91CF911F910F91FF90EF90DF90FC
:101BC000CF9008958091D201813029F018F08230B1
:101BD00019F00895BACDA4CEA7CE84B7877F84BF6D
:101BE00088E10FB6F89480936000109260000FBEF9
:101BF00090E080E80FB6F8948093610090936100C4
:101C00000FBE0E94E101539A3E98469A3F98479A28
:101C100026982E9A0E943B015CC8CF93DF93CDB7E4
:101C2000DEB76E970FB6F894DEBF0FBECDBFD5DF1F
:101C30006CED71E085E091E00E949803789486E075
:101C400090E00E9425168093DB01A8E2EA2EA1E035
:101C5000FA2E8E010F5F1F4FB8E3CB2EB1E0DB2EC3
:101C60008CE5A82E81E0B82E8091DA018111BEC0EA
:101C70008091DB0181110EC0BFDA81E00E94D501A5
:101C80008FE39FE10197F1F700C0000081E08093AE
:101C9000DA01ACC082E090E0E0D79093D901809364
:101CA000D80184E090E0D9D79093D7018093D601F2
:101CB00080E090E0D2D79093D5018093D4016091D9
:101CC000D6017091D70180E090E09ED12DEC3CECE4
:101CD0004CE453E431D12DEC3CEC4CE45EE3C7D052
:101CE0002CE53AEA42ED5BE327D120E932EB41E211
:101CF0005CE318D29F938F937F936F93FF92EF9241
:101D00001F930F9325D780E80E94D501C8010E9438
:101D100012029FEF23ED80E3915020408040E1F7D5
:101D200000C000006091D8017091D90180E090E07E
:101D30006BD12DEC3CEC4CE453E4FED02DEC3CECB0
:101D40004CE45EE394D02CE53AEA42ED5BE3F4D058
:101D500020E932EB41E25CE3E5D19F938F937F93DF
:101D60006F93DF92CF921F930F93F2D680E80E9479
:101D7000D501C8010E9412029FEF23ED80E391502C
:101D800020408040E1F700C0000081E00E94D501C2
:101D90008FE39FE10197F1F700C000008091D4012B
:101DA0009091D5019F938F93BF92AF921F930F9302
:101DB000CFD6C8010E9412029FEF23ED80E391501D
:101DC00020408040E1F700C0000081E00E94D50182
:101DD0008FE39FE10197F1F700C0000081E080935D
:101DE000DA010FB6F894DEBF0FBECDBFEBDE9FEF7A
:101DF00024E38CE0915020408040E1F700C00000D7
:101E000033CF81E00E94D5018FE39FE10197F1F785
:101E100000C0000084EB91E00E9412029FEF29E6CF
:101E200088E1915020408040E1F700C00000089513
:101E300081E00E94D5018FE39FE10197F1F700C097
:101E4000000080EC91E00E9412029FEF29E688E1F9
:101E5000915020408040E1F700C00000089585E0E7
:101E600091E00C94990285E091E00C94AC035058F9
:101E7000BB27AA270ED01CC10DD130F012D120F003
:101E800031F49F3F11F41EF402C10EF4E095E7FB1C
:101E9000F8C0E92F1ED180F3BA17620773078407D1
:101EA000950718F071F49EF536C10EF4E0950B2EEF
:101EB000BA2FA02D0B01B90190010C01CA01A0019C
:101EC0001124FF27591B99F0593F50F4503E68F1F7
:101ED0001A16F040A22F232F342F4427585FF3CF38
:101EE000469537952795A795F0405395C9F77EF409
:101EF0001F16BA0B620B730B840BBAF09150A1F052
:101F0000FF0FBB1F661F771F881FC2F70EC0BA0FD7
:101F1000621F731F841F48F4879577956795B7955F
:101F2000F7959E3F08F0B3CF9395880F08F0992757
:101F3000EE0F9795879508950CD0BAC0B2D040F0B7
:101F4000A9D030F021F45F3F19F09BC05111E4C0DB
:101F50009EC0BFD098F39923C9F35523B1F3951BC5
:101F6000550BBB27AA2762177307840738F09F5FBA
:101F70005F4F220F331F441FAA1FA9F333D00E2E29
:101F80003AF0E0E830D091505040E695001CCAF796
:101F900029D0FE2F27D0660F771F881FBB1F26175B
:101FA00037074807AB07B0E809F0BB0B802DBF012E
:101FB000FF2793585F4F2AF09E3F510568F061C09C
:101FC000ABC05F3FECF3983EDCF386957795679561
:101FD000B795F7959F5FC9F7880F911D96958795DF
:101FE00097F90895E1E0660F771F881FBB1F6217FE
:101FF00073078407BA0720F0621B730B840BBA0BBC
:10200000EE1F88F7E0950895E89409C097FB3EF429
:1020100090958095709561957F4F8F4F9F4F992335
:10202000A9F0F92F96E9BB279395F69587957795B3
:102030006795B795F111F8CFFAF4BB0F11F460FF73
:102040001BC06F5F7F4F8F4F9F4F16C0882311F0CB
:1020500096E911C0772321F09EE8872F762F05C0DF
:10206000662371F096E8862F70E060E02AF09A957A
:10207000660F771F881FDAF7880F9695879597F96F
:10208000089597F99F6780E870E060E008959FEFFA
:1020900080EC089500240A941616170618060906FF
:1020A000089500240A9412161306140605060895CE
:1020B000092E0394000C11F4882352F0BB0F40F456
:1020C000BF2B11F460FF04C06F5F7F4F8F4F9F4F96
:1020D000089557FD9058440F551F59F05F3F71F018
:1020E0004795880F97FB991F61F09F3F79F087957F
:1020F0000895121613061406551FF2CF4695F1DF08
:1021000008C0161617061806991FF1CF8695710597
:10211000610508940895E894BB2766277727CB01CB
:1021200097F908950BD0C4CFB5DF28F0BADF18F0C7
:10213000952309F0A6CFABCF1124EECFCADFA0F3D1
:10214000959FD1F3950F50E0551F629FF001729F4C
:10215000BB27F00DB11D639FAA27F00DB11DAA1F6B
:10216000649F6627B00DA11D661F829F2227B00DB8
:10217000A11D621F739FB00DA11D621F839FA00D43
:10218000611D221F749F3327A00D611D231F849F93
:10219000600D211D822F762F6A2F11249F575040EA
:1021A0008AF0E1F088234AF0EE0FFF1FBB1F661F85
:1021B000771F881F91505040A9F79E3F510570F03E
:1021C00060CFAACF5F3FECF3983EDCF3869577951E
:1021D0006795B795F795E7959F5FC1F7FE2B880F39
:1021E000911D9695879597F90895A3E1B0E0EAEFE0
:1021F000F0E157C37C011B016A01FC0117821682C2
:10220000838181FF49C3BE016F5F7F4F4B01F7019F
:102210009381F10193FD859193FF81911F018823A3
:1022200009F436C3853239F493FD859193FF81918A
:102230001F01853231F4B70190E058D45601650191
:10224000E6CF10E0512C20E02032A0F48B3269F070
:1022500030F4803259F0833269F420612CC08D3221
:1022600039F0803339F4216026C02260246023C015
:10227000286021C027FD27C030ED380F3A3078F4B0
:1022800026FF06C0FAE01F9F300D1124132F13C044
:102290006AE0569E300D1124532E20620CC08E32FF
:1022A00021F426FDF5C2206406C08C3611F42068A6
:1022B00002C0883641F4F10193FD859193FF81912D
:1022C0001F018111C1CF9BEB980F933018F420614F
:1022D000805E06C09BE9980F933008F09AC12F7E6C
:1022E00026FF16E02F73722E853621F4F22FF0644C
:1022F0007F2E08C0863621F4622F6068762E02C0D9
:102300001111115077FE07C01C3348F44424439444
:10231000410E27E00BC0183030F4212F06C027E013
:102320004CE3442E03C027E017E0412C560174E033
:10233000A70EB11CF6016081718182819381042D09
:10234000A401E6D26C01098100FF02C003FF06C0B0
:1023500071FC07C072FC08C0612C08C03DE2632E0E
:1023600005C02BE2622E02C090E2692E802F8C7095
:1023700081F1662011F084E001C083E0851510F042
:10238000512C0AC0581A73FC07C0B70180E290E0D4
:10239000ADD35A94D1F7F4CF662021F0B701862D42
:1023A00090E0A4D303FD03C00CE311E002C008E3F6
:1023B00011E0F72DF0717F2EF8018491882309F444
:1023C0005EC271108052B70190E090D30F5F1F4F33
:1023D000F3CF77FE0FC04C0C04FF04C08A81813319
:1023E00009F44A94141474F5F8E0F41578F588E0CB
:1023F000482E2CC076FC2AC0812F90E08C159D05BC
:102400009CF06CEFC6166FEFD60674F0772D7068EF
:10241000772E0AC0E2E0F0E0EC0FFD1FE10FF11DA6
:102420008081803319F411501111F4CF77FE0EC062
:1024300044244394410E812F90E0C816D9062CF411
:102440001C1904C04424439401C010E077FE07C067
:102450001C141D043CF496012F5F3F4F05C025E07E
:1024600030E002C021E030E0662011F02F5F3F4FE6
:10247000112331F0412F50E04F5F5F4F240F351F84
:10248000452D50E02417350714F4521A01C0512C81
:10249000872D897041F4552031F0B70180E290E03A
:1024A00025D35A94F8CF662021F0B701862D90E00D
:1024B0001DD373FC08C0552031F0B70180E390E0D4
:1024C00015D35A94F8CF77FE5DC09C2D8D2DD7FE85
:1024D00002C090E080E0692E782E40E050E0C60116
:1024E000841991099D878C87960126193709280D33
:1024F000391D812F90E0EE27FF27E81BF90BFF879E
:10250000EE87FFEF6F167F0661F4B7018EE290E071
:102510002B8B3A8B488B598BE9D2598948893A8958
:102520002B89C614D70454F06C857D856615770514
:102530002CF4F901E40FF51F818101C080E371E003
:10254000671A71084F5F5F4FEE85FF856E167F0635
:1025500064F0B70190E02B8B3A8B488B598BC6D235
:102560002B893A8948895989CCCF6C147D0439F478
:102570009A81963318F4953311F404FF81E3B7017F
:1025800090E045C08A81813309F00F7EB70190E069
:10259000ADD2111105C074FE16C085E490E015C0DF
:1025A000B7018EE290E0A2D282E066246394680EC6
:1025B000F401E80FF11D8081B70190E097D211502E
:1025C00051F3862DF2CF85E690E0B7018FD2D7FC8C
:1025D00005C0C114D10439F404FF05C0D194C194DD
:1025E000D1088DE201C08BE2B70190E07FD280E399
:1025F0006AE0C616D1042CF08F5FFAE0CF1AD1083A
:10260000F7CFB70190E072D2B701C601C0966ED283
:1026100036C1833631F0833779F0833509F054C001
:1026200020C0560172E0A70EB11CF601808189839B
:1026300001E010E0640113C05601F2E0AF0EB11CDE
:10264000F601C080D18026FF03C0612F70E002C078
:102650006FEF7FEFC6012B8B3ED28C012B892F773A
:1026600014C05601F2E0AF0EB11CF601C080D1805B
:1026700026FF03C0612F70E002C06FEF7FEFC6013D
:102680002B8B1ED28C012B892068722E23FD18C043
:10269000852D90E00817190798F4B70180E290E0C3
:1026A00025D25A94F5CFF60177FC859177FE81917A
:1026B0006F01B70190E01AD251105A9401501109DC
:1026C0000115110581F7DBC0843611F0893649F513
:1026D000560127FF09C0F4E0AF0EB11CF60160817E
:1026E0007181828193810AC0F2E0AF0EB11CF601C4
:1026F00060817181882777FD8095982F022F0F7652
:1027000097FF08C090958095709561957F4F8F4F8A
:102710009F4F00682AE030E0A40139D2C82EC818C3
:102720003DC0022F853721F40F7E2AE030E01DC026
:10273000097F8F3691F018F4883559F0A9C0803799
:1027400019F0883711F0A4C0006104FF09C00460CB
:1027500007C024FF08C0066006C028E030E005C0BE
:1027600020E130E002C020E132E0560107FF09C05D
:10277000F4E0AF0EB11CF60160817181828193811A
:1027800008C0F2E0AF0EB11CF6016081718180E0FB
:1027900090E0A401FCD1C82EC8180F7706FF0BC02B
:1027A000202F2E7FC11650F404FF0AC002FD08C07E
:1027B000202F2E7E05C0DC2C202F03C0DC2C01C076
:1027C000D12E24FF0DC0FE01EC0DF11D8081803360
:1027D00011F4297E09C022FF06C0D394D39404C00B
:1027E000822F867809F0D39423FD12C020FF06C003
:1027F0001C2DD51418F4150D1D19D52CD51460F405
:10280000B70180E290E02B8B71D1D3942B89F6CF66
:10281000D51410F45D1801C0512C24FF11C0B7016C
:1028200080E390E02B8B62D12B8922FF16C021FF21
:1028300003C088E590E002C088E790E0B7010CC0D3
:10284000822F867851F021FD02C080E201C08BE228
:1028500027FD8DE2B70190E049D1C11630F4B701F0
:1028600080E390E043D11150F8CFCA94F401EC0D0D
:10287000F11D8081B70190E039D1C110F6CF55200C
:1028800009F4DDCCB70180E290E030D15A94F7CF63
:10289000F7018681978102C08FEF9FEF6396E2E197
:1028A0001CC02F923F924F925F926F927F928F92B5
:1028B0009F92AF92BF92CF92DF92EF92FF920F93CF
:1028C0001F93CF93DF93CDB7DEB7CA1BDB0B0FB6D9
:1028D000F894DEBF0FBECDBF09942A883988488896
:1028E0005F846E847D848C849B84AA84B984C8842C
:1028F000DF80EE80FD800C811B81AA81B981CE0F23
:10290000D11D0FB6F894DEBF0FBECDBFED01089507
:10291000283008F027E03327DA01990F311D87FDB1
:10292000916000966105710539F432602E5F3D9328
:1029300030E32A95E1F708959F3F30F08038710524
:10294000610509F03C5F3C5F3D93913008F0806881
:10295000911DDF93CF931F930F93FF92EF92192F47
:10296000987F9695E92F96959695E90FFF27E6565D
:10297000FE4F99273327EE24FF24A701E701059096
:102980000894079428F4360FE71EF81E491F511DBE
:10299000660F771F881F991F0694A1F7059007946B
:1029A00028F4E70EF81E491F561FC11D770F881F18
:1029B000991F661F0694A1F70590079428F4F80E56
:1029C000491F561FC71FD11D880F991F661F771FEC
:1029D0000694A1F70590079420F4490F561FC71FCE
:1029E000D81F990F661F771F881F0694A9F7849137
:1029F0001095177041F0D695C79557954795F79460
:102A0000E7941A95C1F7E0E4F1E068941590159108
:102A100035916591959105907FE27395E118F10AE2
:102A2000430B560BC90BD009C0F7E10CF11E431F35
:102A3000561FC91FD01D7EF4703311F48A95E6CF5E
:102A4000E894015030F0080F0AF40027021708F448
:102A5000202F2395022F7A3328F079E37D932A954E
:102A6000E9F710C07D932A9589F6069497956795A6
:102A7000379517951794E118F10A430B560BC90BBC
:102A8000D00998F023957E9173957A3308F070E31E
:102A90007C932013B8F77E9170617D9330F083951D
:102AA00071E37D9370E32A95E1F71124EF90FF9095
:102AB0000F911F91CF91DF91992787FD90950895F0
:102AC000FC010590615070400110D8F780959095F9
:102AD0008E0F9F1F0895FC016150704001900110FE
:102AE000D8F7809590958E0F9F1F08950F931F9391
:102AF000CF93DF93182F092FEB018B8181FD03C04A
:102B00008FEF9FEF20C082FF10C04E815F812C812C
:102B10003D81421753077CF4E881F9819F012F5FC3
:102B20003F4F39832883108306C0E885F985812FBC
:102B30000995892B29F72E813F812F5F3F4F3F83D6
:102B40002E83812F902FDF91CF911F910F910895A8
:102B5000AEE0B0E0EDEAF5E1B2CE0D891E8986E087
:102B60008C831A8309838FEF9FE79E838D83AE0149
:102B7000475E5F4F6F89788DCE01019636DBEF811E
:102B8000F885E00FF11F10822E96E4E0B4CEFA0132
:102B9000AA27283051F1203181F1E8946F936E7F9C
:102BA0006E5F7F4F8F4F9F4FAF4FB1E03ED0B4E08D
:102BB0003CD0670F781F891F9A1FA11D680F791FCE
:102BC0008A1F911DA11D6A0F711D811D911DA11DDF
:102BD00020D009F468943F912AE0269F11243019EF
:102BE000305D3193DEF6CF010895462F4770405D8A
:102BF0004193B3E00FD0C9F7F6CF462F4F70405D39
:102C00004A3318F0495D31FD4052419302D0A9F793
:102C1000EACFB4E0A6959795879577956795BA958D
:102C2000C9F700976105710508959B01AC010A2E53
:102C300006945795479537952795BA95C9F7620F2A
:102C4000731F841F951FA01D0895F999FECF92BD93
:102C500081BDF89A992780B50895A8E1B0E042E0D7
:102C600050E026C0262FF999FECF92BD81BDF89A7B
:102C7000019700B4021639F01FBA20BD0FB6F894C0
:102C8000FA9AF99A0FBE08950196272FECDFEACF42
:102C9000262FF999FECF1FBA92BD81BD20BD0FB678
:102CA000F894FA9AF99A0FBE01960895DC01CB01C7
:102CB000FC01F999FECF06C0F2BDE1BDF89A31964C
:102CC00000B40D9241505040B8F70895F894FFCFEA
:102CD000020101290000831000000104100000011E
:102CE0008208000001000000000000000000000059
:102CF0004FC1B8B2BA61210050206D696E3A2025EB
:102D00002E32662061BFBC0050206D61783A2025CC
:102D10002E32662061BFBC0050206D6178203C20BF
:102D200050206D696E0050206F6B21005420526559
:102D3000673A2025332E3064206300486163BF70FA
:102D40006FB9BAB800546563BF00546573742072DC
:102D5000756E6E696E67210050206D61780925647B
:102D60000D0A0050206D696E0925640D0A0054207B
:102D70005265670925640D0A0052656C6179092561
:102D8000640D0A0055534220636F6E6E65637400D4
:102D900055534220646973636F6E6E6563740000FF
:00000001FF
