S0120000434C4153535F434443342E737265633F
S11300008CC00000A6C00000A4C00000A2C0000074
S1130010A0C000009EC000009CC000009AC0000068
S113002098C0000096C00000DEC50000A1C6000014
S113003090C000008EC000008CC000008AC0000088
S113004088C0000086C0000084C0000082C0000098
S113005080C000007EC000007CC0000087C000009B
S113006078C0000076C0000074C0000072C00000B8
S113007070C000006EC000006CC000006AC00000C8
S113008068C0000066C0000064C0000062C00000D8
S113009060C000005EC000005CC000005AC00000E8
S11300A058C0000056C0000054C000000C034100BA
S11300B02D00530075006E0000000A034C006F0011
S11300C05400500000000403090409023E00020128
S11300D000C03209040000010202010005240010DE
S11300E00104240206052406000107058203080012
S11300F0FF09040100020A000000070504021000C1
S11301000507058302100005120110010200000812
S1130110EB03442001000102DC0111241FBECFEFD8
S1130120DAE0DEBFCDBF11E0A0E0B1E0EAE6F1E144
S113013002C005900D92AC31B107D9F721E0ACE1D2
S1130140B1E001C01D92AF33B207E1F7F3D70C94CD
S1130150B30856CF81E480937C0087E880937A00CB
S1130160EBE7F0E080818062808308951F920F9214
S11301700FB60F9211242F933F934F935F936F9376
S11301807F938F939F9320911C0130911D01409187
S11301901E0150911F0160912001709121018091F5
S11301A02201909123013F5F4F4F5F4F6F4F7F4F6D
S11301B08F4F9F4F20931C0130931D0140931E01CC
S11301C050931F01609320017093210180932201B9
S11301D0909323019F918F917F916F915F914F91A4
S11301E03F912F910F900FBE0F901F901895292FBC
S11301F033272230310559F02330310569F021309D
S1130200310529F180E090E020E030E029C08EE360
S113021090E02AEC30E024C099278130910559F010
S11302208230910571F0892BB9F4E6ECF0E0849109
S113023090E09F0115C0EAEBF0E0849190E09F010B
S11302400FC0ECEAF0E0849190E09F0109C082E1E4
S113025090E028E031E004C080E090E020E030E06D
S1130260FA0131832083089595ED9A95F1F7000002
S11302708898982F907F84FF02C08C9A01C08C9834
S113028085FF02C08D9A01C08D9886FF02C08E9AA8
S113029001C08E98992314F48F9A01C08F98899A7B
S11302A08AE08A95F1F700C08998089595ED9A95AA
S11302B0F1F700008898982F907F84FF02C08C9AF1
S11302C001C08C9885FF02C08D9A01C08D9886FF6D
S11302D002C08E9A01C08E98992314F48F9A01C09B
S11302E08F98899A9AE09A95F1F700C08998829537
S11302F0982F907F84FF02C08C9A01C08C9885FF50
S113030002C08D9A01C08D9886FF02C08E9A01C0EA
S11303108E98992314F48F9A01C08F98899A8AE051
S11303208A95F1F700C089980895849A859A869AE7
S1130330879A809A819A2FEF83EF91E02150804031
S11303409040E1F700C0000080E38EDF8FE39CE97A
S11303500197F1F700C0000080E386DF8FE39FE19F
S11303600197F1F700C0000080E37EDF88E27CDFC4
S113037088E29CDF8CE09ADF81E098DF8FE39FE1E5
S11303800197F1F700C0000086E090CF0895CF9365
S1130390DF93EC01FC0170968BE0DF011D928A95DE
S11303A0E9F782E08C83898783E08E8761E0CE0160
S11303B00196F8D2882351F061E0CE010696F2D27C
S11303C0882321F061E0CE010B96ECD2DF91CF912E
S11303D00895CF93C62F209136012430E9F4FC010F
S11303E04489558966897789452B462B472BB1F07B
S11303F081818F708093E9008091E80085FD08C0B9
S1130400E8EEF0E080818E7780834DD3811107C0C0
S1130410C093F10080E003C082E001C082E0CF918C
S11304200895FB01682F84859585D3DF21E030E0B2
S1130430811102C020E030E088279927821B930BAA
S1130440089520913601243031F5FC014489558901
S113045066897789452B462B472BF9F081818F706C
S11304608093E9002091F3008091F20090E0922BB8
S1130470892BA9F0E8EEF0E0808190819E7790834B
S113048085FD0FC010D381110DC0E8EEF0E090811E
S11304909E779083089582E0089582E0089580E035
S11304A0089580E0089520913601243089F4FC01F8
S11304B04489558966897789452B462B472B41F01A
S11304C021812F702093E9002091E80020FDB9CF0D
S11304D0089520913601243079F5FC014489558929
S11304E066897789452B462B472B49F186818F7086
S11304F08093E9008091E80082FF24C02091F300FA
S11305008091F20090E0922B892B21F02091F10050
S113051030E002C02FEF3FEF4091F3008091F200F2
S113052090E0942B892B89F4E8EEF0E080818B77BE
S11305308083822F932F08958FEF9FEF08958FEF7D
S11305409FEF08958FEF9FEF0895822F932F0895C3
S1130550FC0184859585BDDF992314F48EEF9FEF0C
S11305600895FB012EE0DB011D922A95E9F723E0B3
S1130570238321E132E03187208728EA32E0338780
S113058022879587848708950895CF93DF93EC019C
S11305908091E80083FF95C0888190E020913B0121
S11305A030913C012817390709F08BC0809138013C
S11305B0813259F018F48032B9F183C0823209F4DF
S11305C05FC0833209F46FC07CC080913701813AE7
S11305D009F077C0E8EEF0E08081877F8083808136
S11305E080FFFDCF4C895D896E897F89E1EFF0E062
S11305F04083BB27A72F962F852F8083CB01AA2763
S1130600BB278083472F5527662777274083888D0C
S11306108083898D80838A8D8083E8EEF0E08081F9
S11306208E7780831CD24DC080913701813209F0CE
S113063048C0E8EEF0E08081877F808305C0809128
S11306403601882309F43DC0808182FFF8CFE1EFB1
S1130650F0E030812081908180813C8B2D8B9E8BBA
S11306608F8B8081888F8081898F80818A8FE8EE4B
S1130670F0E080818B778083F2D1CE0185DF21C0C9
S1130680809137018132E9F4E8EEF0E08081877FE0
S11306908083E5D18091390190913A01998B888BBF
S11306A0CE0172DF0EC080913701813251F4E8EE41
S11306B0F0E08081877F8083D2D160913901CE01BF
S11306C063DFDF91CF910895DF92EF92FF920F9352
S11306D01F93CF93DF9320913D0130913E01261764
S11306E0370758F06115710539F4E8EEF0E0208120
S11306F02E7720839B0101C09B01A0E0E8EEF0E08F
S113070003EF10E062EF70E0C1EFD0E0FF24F39458
S1130710E12C38C040913601442309F447C04530E8
S113072009F446C0408143FD45C0408142FF03C0F7
S1130730E8EEF0E036C0408140FF24C0D801DC90F0
S1130740DB014C9150E05D292115310599F04830C9
S1130750510580F4A82FB92F8D9188838A2F9B2F60
S1130760215031094F5F5F4F2115310519F0483091
S1130770510591F7AF2D4830510509F0AE2D408158
S11307804E7740832115310529F6A111C3CFD0CF6F
S113079080913601882381F0853081F0808183FD4A
S11307A00FC0808182FFF4CF80E00BC082E009C0DB
S11307B083E007C081E005C082E003C083E001C09C
S11307C081E0DF91CF911F910F91FF90EF90DF9027
S11307D00895CF92DF92FF920F931F93CF93DF93ED
S11307E020913D0130913E012617370758F06115DD
S11307F0710539F4E8EEF0E020812E7720839B0127
S113080001C09B01E82FF92F10E0A8EEB0E063EFE0
S113081070E042EF50E00F2EF1EFCF2ED12CF02DEF
S113082001E0F12C34C080913601882309F443C0DF
S1130830853009F442C08C9183FD41C08C9182FFC4
S113084003C0E8EEF0E032C08C9180FF20C0EB01E1
S11308501881EA01888190E0912B2115310581F0FE
S11308608830910568F41491E6011883319621507B
S1130870310901962115310519F08830910599F750
S1130880102F089709F01F2D8C918E778C932115CA
S1130890310549F61111C7CFD4CF80913601882391
S11308A081F0853081F0808183FD0FC0808182FFDB
S11308B0F4CF80E00BC082E009C083E007C081E090
S11308C005C082E003C083E001C081E0DF91CF91E5
S11308D01F910F91FF90DF90CF9008958F929F9278
S11308E0BF92CF92DF92EF92FF920F931F93CF9319
S11308F0DF93873070F126C0592F5F70E801588369
S1130900891731F0E901D8805081E401788103C06E
S11309105B2DD62E7C2D51FF12C04C914E7F4C93F3
S113092040814D7F40834C9141604C93E901D882D2
S11309305083E4017883E7015881552344F49F5F91
S11309409730D1F68F708093E90081E01FC080E07A
S11309501DC0982F9F709093E900982F542FD62E86
S113096070E0ABEEB0E0EDEEF0E02CEE30E00F2EF8
S1130970F0EF8F2E912CF02D0F2EFEEEEF2EF12C9A
S1130980F02D09EE10E0B42EC12CC5CFDF91CF912C
S11309901F910F91FF90EF90DF90CF90BF909F90A9
S11309A08F900895BF92CF92DF92EF92FF920F93B0
S11309B01F93CF93DF93062F662309F441C0C82FFA
S11309C0D92F10E0F12C6894DD24D3F8E12C68943D
S11309D0BB24B1F80F2EF6E0CF2EF02D588155230D
S11309E051F19C81E981FA817B81852F8F70873059
S11309F048F5923010F04C2D01C04B2DE930F10533
S1130A0050F02D2D3E2D9F2D9F5F220F331F2E174B
S1130A103F07D0F301C09F2D9295907F492B551F1E
S1130A205527551F90E4799F90011124652F622B5F
S1130A3055DF882351F01F5F25961013CFCF04C0D4
S1130A4081E003C080E001C081E0DF91CF911F917C
S1130A500F91FF90EF90DF90CF90BF900895809119
S1130A60370188231CF0E8EEF0E014C0E8EEF0E073
S1130A7004C0809136018823A9F0808182FFF9CFD8
S1130A80E8EEF0E080818B778083089580913601D1
S1130A90882341F0808180FFF9CFE8EEF0E0808187
S1130AA08E77808308950F931F93CF93DF932091C4
S1130AB0E4003091E50065E6ACEEB0E0E8EEF0E08D
S1130AC00BEE10E044EE50E08C9180FD21C024C078
S1130AD080913601882381F0853081F0E801888196
S1130AE085FD0EC0EA01888199812817390761F3D1
S1130AF0615041F09C01E8CF82E012C083E010C055
S1130B0081E00EC084E00CC080E00AC080E008C030
S1130B10808180FFDDCFF8CF808182FFD9CFF6CFEF
S1130B20DF91CF911F910F9108950F931F93CF934E
S1130B30DF934CD053D0C8EDD0E088818F77888381
S1130B4088818068888388818F7D888319BC10920E
S1130B50360110923201109234011092330100EEEA
S1130B6010E0F80180818B7F808388818160888395
S1130B7042E060E080E0B2DEE1EEF0E080818E7F72
S1130B808083E2EEF0E080818160808380818860F0
S1130B908083F80180818E7F80838881806188834F
S1130BA0DF91CF911F910F910895E8EDF0E08081DE
S1130BB08F7E8083E7EDF0E080818160808384E034
S1130BC082BF81E080933501B0CF0895E8EDF0E075
S1130BD080818E7F80831092E20008951092DA0063
S1130BE01092E10008951F920F920FB60F921124F4
S1130BF02F933F934F935F936F937F938F939F9321
S1130C00AF93BF93EF93FF938091E10082FF0AC0FB
S1130C108091E20082FF06C0E1EEF0E080818B7FEC
S1130C2080834DD28091DA0080FF1DC08091D8006E
S1130C3080FF19C0EAEDF0E080818E7F808380918F
S1130C40D90080FF0CC080E189BD82E189BD09B46F
S1130C5000FEFDCF81E0809336017BD204C019BC35
S1130C601092360177D28091E10080FF16C0809106
S1130C70E20080FF12C0E2EEF0E080818E7F80838C
S1130C80808180618083E8EDF0E0808180628083F0
S1130C9019BC85E08093360112D28091E10084FF73
S1130CA02FC08091E20084FF2BC080E189BD82E1E6
S1130CB089BD09B400FEFDCFE8EDF0E080818F7DB1
S1130CC08083E1EEF0E080818F7E8083E2EEF0E0CD
S1130CD080818F7E808380818160808380913201D6
S1130CE0882321F084E08093360109C08091E300D9
S1130CF0882314F483E001C081E080933601DFD1BE
S1130D008091E10083FF23C08091E20083FF1FC034
S1130D10E1EEF0E08081877F808382E0809336017A
S1130D201092320180818E7F8083E2EEF0E0808138
S1130D308E7F808380818061808342E060E080E0F8
S1130D40CDDDE0EFF0E0808188608083B8D1FF9151
S1130D50EF91BF91AF919F918F917F916F915F912F
S1130D604F913F912F910F900FBE0F901F901895A8
S1130D701F920F920FB60F9211242F933F934F930C
S1130D805F936F937F938F939F93AF93BF93CF930F
S1130D90EF93FF93C091E900CF708091EC00109223
S1130DA0E900E0EFF0E08081877F808378941BD0B6
S1130DB0E9EEF0E01082A0EFB0E08C9188608C93B3
S1130DC0C083FF91EF91CF91BF91AF919F918F918C
S1130DD07F916F915F914F913F912F910F900FBE33
S1130DE00F901F9018950F931F93CF93DF93CDB758
S1130DF0DEB7AA970FB6F894DEBF0FBECDBFE7E308
S1130E00F1E08FE391E0A1EFB0E02C912193E8179A
S1130E10F907D9F7A4D18091E80083FF2BC1909101
S1130E20370180913801853009F478C030F481307D
S1130E30B1F168F0833099F11DC1883009F4E8C03C
S1130E40893009F4F5C0863009F014C18AC090389D
S1130E5021F0923809F00EC108C0809133019091BD
S1130E603401992371F082600CC080913B018F7032
S1130E70E9EEF0E080838091EB0085FB882780F920
S1130E801082E8EEF0E09081977F9083A1EFB0E0CC
S1130E908C931C9280818E778083E1DDEBC0992353
S1130EA009F4F7C0923009F0E5C0F8C091E083304E
S1130EB009F090E09093340128C020913B012F70F9
S1130EC009F4D8C02093E9008091EB0080FF1DC095
S1130ED080913801833031F4EBEEF0E08081806260
S1130EE0808313C0EBEEF0E080818061808381E039
S1130EF090E002C0880F991F2A95E2F7AAEEB0E0AD
S1130F008C931C928081886080831092E900E8EEC3
S1130F10F0E08081877F8083A2DDACC09111AAC0FC
S1130F20109139011F77E3EEF0E080818078812B06
S1130F308083E8EEF0E08081877F808390DDE8EEB7
S1130F40F0E0808180FFFDCFE3EEF0E080818068F7
S1130F508083112311F083E001C082E08093360185
S1130F6089C09058923008F085C0809139019091E1
S1130F703A018C3D23E0920799F583E08A838AE263
S1130F8089835FB7F894DE01139620E03EE041E2E6
S1130F90E32FF0E040935700849120FF03C0829533
S1130FA08F703F5F8F708A3018F090E0C79602C050
S1130FB090E0C0968D939D932F5F243149F75FBFD6
S1130FC008EE10E0F8018081877F80836AE270E098
S1130FD0CE01019679DBF80180818B7780834AC04A
S1130FE0AE014F5F5F4F60913B0101D9009709F457
S1130FF041C008EE10E0F8012081277F2083BC0166
S113100089819A81E6DBF80180818B77808332C005
S1131010903881F5E8EEF0E08081877F80838091CD
S113102032018093F10080818E77808318DD22C0A5
S1131030911120C0809139018230E0F4E8EEF0E0B3
S11310408081877F8083809139018093320107DD1D
S113105080913201882321F084E08093360109C015
S11310608091E300882314F484E001C081E080933C
S1131070360171D08091E80083FF16C0E8EEF0E0FD
S11310808081877F8083EBEEF0E0808180628083C3
S11310900BC090913901913069F708CF80913901E3
S11310A0882309F40ACF31CFAA960FB6F894DEBF8D
S11310B00FBECDBFDF91CF911F910F910895089579
S11310C0CF93809136018823A1F0C091E900CF70BD
S11310D08091EC0080FF02C080E801C080E0C82B52
S11310E01092E9008091E80083FD7DDECF70C0930B
S11310F0E900CF91089584B7877F84BF88E10FB654
S1131100F89480936000109260000FBE90E080E835
S11311100FB6F89480936100909361000FBE05D9D7
S113112019D83E98469A3F98479A26982E9A539AE9
S11311303CCD0895E0DF64E271E080E091E011DAF3
S1131140789480E091E0C5D980E091E0ACD9B8DF33
S1131150F8CF0895089580E091E019C9089580E0DA
S10D116091E013CA0895F894FFCF3C
S113116A008310000001041000000182080000013D
S10F117A00000000000000000000000065
S9030000FC
